:10100000008C022001110000ADD804004D640700DF
:10101000ADD80400ADD80400ADD804000000000035
:10102000000000000000000000000000ADD8040037
:10103000ADD8040000000000ADD80400ADD8040015
:10104000C12D0400ADD80400ADD80400ADD8040013
:10105000ADD80400ADD80400912D0400ADD8040033
:10106000ADD80400ADD80400ADD80400C52F0400ED
:10107000ADD80400ADD80400ADD80400ADD804004C
:10108000ADD80400ADD80400ADD80400ADD804003C
:10109000792D0400ADD80400ADD80400612E040001
:1010A000F52D0400ADD80400ADD80400ADD804007F
:1010B000ADD80400ADD8040000000000000000001E
:1010C000ADD80400ADD80400ADD80400ADD80400FC
:1010D000ADD80400ADD80400ADD80400A12D0400A3
:1010E000ADD80400ADD80400ADD804000000000065
:1010F00000000000ADD8040000000000ADD80400DE
:1011000080B56F464CF0D3FB4CF0B0FB4CF0BAFB13
:101110000348016841F4700101604CF0C3FB00BF5B
:1011200088ED00E080B56F464A682AB100234B6025
:1011300009681DF0B9FD80BD09683CF081FC80BDE7
:101140000020704700207047F0B503AF4DF804BD94
:101150006EF0EEF93CF0F9FA28B9D6F80009011959
:10116000B1F5106F01D902200BE04CB115F8011B4D
:10117000013C3154D6F800090130C6F80009F4E703
:101180000E206AF003BCF0B503AF4DF804BD6EF05D
:10119000CFF93CF0A4FA08B1022008E06BF01DFC86
:1011A0004FF078FB01460E20002918BF02206AF09C
:1011B000EDBBF0B503AF4DF804BD6EF0B9F93CF0EE
:1011C0009FFA28B9D6F800050119B1F5A06F01D929
:1011D00002200BE04CB115F8011B013C3154D6F84C
:1011E00000050130C6F80005F4E70E206AF0CEBB1A
:1011F000F0B503AF4DF804BD8EB001AC01462046FA
:1012000021F082FC09A821462AF05CF9201D0A9DE4
:101210000C9E2AF0FEF8A919084404300EB05DF8BF
:1012200004BBF0BDF0B503AF2DE9000FADF5665D71
:101230008BB00AAC064604F5275E0BAC04F5175CD0
:1012400006AC23930AA800F53D50CBB2083022909B
:101250000AA804F5965500F517500DF5A47A00F18B
:1012600005090AF1880B0AF19808B968D0B2DFE8DD
:1012700013F0060099013D01590154006D0110065B
:1012800040F090812196D1F800290AA86EF0A8F8C4
:101290000DF5005090F8E8450C2C00F04A820DF551
:1012A00000500DF500516EF069F80DF500500DF588
:1012B0000051B0F8E905A1F8690F0BA86CF0E2FA4B
:1012C0000AA8239D00F52750DFF88C3E05F54879E4
:1012D000C0F884650DF50050D5F82024494680F803
:1012E000684F0D2000900DF5D26054F0CFFEDFF86E
:1012F0006C0E90F82003002800F0C4840DF5F36014
:101300000DF5D2616AF08DFADFF84C1E0DF5AB6079
:101310000D2254F0D1FE00F0C8BC002800F0488136
:10132000032840F03F81DFF8340ED0F8280303286B
:1013300000F0E9812196D1F800290AA86BF02BFB77
:101340003BF007FE0DF5005090F8115B042D00F006
:10135000FA800BA8211D00F5175040F2255250F8D5
:10136000046C02A800F5E3506EF049F80DF500504A
:101370000DF500510DF5F3644FF48072B0F8160BC3
:10138000A1F896010DF50050D0F8120B06A901F551
:1013900096512295C1F8BA0E0DF50050C1F890692A
:1013A00080F89151239800F54875D0F82094204694
:1013B0006BF010FBCDF898980AA800F51756DFF8E7
:1013C000A01D0A226BF0B6FF0DF500506DF067F915
:1013D0000AA8DFF8901D00F517560A226CF077FD79
:1013E0000DF500506DF05BF90AA8294600F53D5651
:1013F0004FF480726AF085FB0AA8314600F5275049
:10140000C0F880960AA86BF0C6FA34F027FA0BA849
:101410006AF0CAFB40F0768404F108010DF50D6016
:101420006AF066FA0AA80DF5F36100F53D544FF431
:1014300082726AF01BFA0AA8214600F51756304658
:1014400034F00CFA0BA86AF0AFFB40F05B84239CED
:1014500006F108014FF4107204F5AC6020900DF60F
:10146000D85074F0EFFB0AA8294600F517564FF440
:1014700080726AF046FB0DF500503146C0F8E896E0
:101480000DF5AB602FF0EAFADFF8D00C2B46D0E96F
:10149000F012D4F820040090209869F06BFE229896
:1014A0000D46032842F03E8006A80DF5AB6100F51D
:1014B00096540DF5005090F88101D4F8A03A0090B0
:1014C00002A800F5E3560AA800F5175806F1100225
:1014D000404607F00FF80BA800F5175353F8040C1B
:1014E000002802F0B582186803F08FB8012800F0D8
:1014F0002781022800F00A81032853D12196A946AA
:10150000D1F800290AA86BF0FAFE3BF022FD0DF598
:10151000005090F811ABBAF1040F40F066818E24B0
:1015200000F0DFBE04283DD12196E146D1F8002924
:101530000AA800F5175630463CF08EF859F8044CCE
:10154000022C40F018818E2003F05FB8042800F0D0
:10155000D480052826D1DFF8044CD4F828030328CA
:1015600000F0D180D1F80009E346C5F89019F246A1
:10157000C5F894090AA800F5175802A800F5E35128
:10158000A94640465CF021FE0DF500506AF07EFD54
:1015900000F0BB830DF50050324690F8E9050121BB
:1015A00000F0A8BE01209621C6E9000103F031B881
:1015B000DFF8A88BD8F82803032800F0A480219630
:1015C000AB46D1F800290AA86DF00AFF0DF50050CE
:1015D00090F8E8450C2C00F0AC800DF500500DF5AE
:1015E00000516DF0CBFE0DF500500DF50051B0F837
:1015F000E905A1F8690F0BA86CF044F90AA8DDF819
:101600008C9000F52750D8E9F01209F54875C0F81C
:1016100084650DF500502B4680F8684FD9F82004FA
:10162000009009F5AC6069F0A5FD0DF5AB6ACDE958
:101630001F1029464FF480725046D9F8204474F0A8
:10164000FFFACDF858460AA800F51756DFF8101B28
:101650000A226BF06FFE0DF500506DF01AF80AA823
:10166000DFF8041B00F5175605226BF063FE0DF53D
:1016700000506DF00EF802A8514600F598504FF456
:1016800082726DF0BCFE08F57570CBF83000D9F8A9
:10169000204452A829466AF06EF992940AA800F5EF
:1016A0003D5000F1040A0DF5005090F8680FDFE896
:1016B00010F00C00B20DA20C2F0DD80BEB0DF80E94
:1016C000920D0D0F2A0C290FBE0B02A800F5E35452
:1016D00002A86AF07AFF0DF5005090F8691F0AA879
:1016E0006DF079FE0DF5005098F8D53329466DF070
:1016F0000AFE0021022202F01CBEDFF860AADAF81E
:10170000280303285DD1012005214DE7D1F8000908
:10171000A7F14804219647E912100AA800F51750CE
:1017200021465CF052FD0DF500506AF0AFFC00F070
:101730009D80219A01208E21C2E9000102F069BF3B
:10174000D1F800090DF5D264CDF89016A846CDF871
:1017500094060AA800F517502146E346F2465CF0CD
:1017600034FD0DF500506AF091FC00F06E813246B8
:101770008E2002F04BBF0DF50D6A06F108010AF14B
:1017800008004FF48072C846D9F8005074F058FA37
:10179000002CCDF8D458CDF8D04800F00C820AF1D6
:1017A0000404DDF8D4290AA800F51750214654F0A6
:1017B0000BFD58F8040C002800F0B2828B2002F0D8
:1017C00024BFD1F800290AA800F51754AB46B1464A
:1017D000654620463BF040FF284655F8045C022D44
:1017E00040F030828E2100F0B2BC0BA8291D00F51C
:1017F000175B0DF6D850043040F225525BF8044CCC
:1018000074F01EFA0DF500500DF58051CDF8D84D4D
:101810004FF48072B0F8160BA1F806030DF50050D6
:101820000DF58051D0F8120BC1F802030DF5805070
:1018300080F801A3239800F54876D0F8204402A848
:1018400000F5E35531466AF066F8C9F8904A0AA8EF
:1018500000F517582946404634F000F86BF0B1FF08
:1018600000F0C982DBF8004000F03BBD0BA8219AD4
:1018700000F517500668082E3FF65CAF00254FF0C4
:1018800000080021DFE816F0A20658074906BC0848
:1018900009003A0909003908F00920910AA800F561
:1018A0003D5452A904F11900EF2274F04EFA04F2EB
:1018B00021100DF5AB61EF2274F047FA04F211200C
:1018C0000DF5D261132274F040FA02A904F22E2021
:1018D00001F5985140F2DE2274F037FA0DF54051CF
:1018E00037F8780CA1F875040DF5405117F8760C0F
:1018F00081F877042802129940EA1B62080E40EA38
:101900000B241E981E94C0B240EA01251F9811991D
:10191000C0B21F92129540EA012322991A9811939E
:10192000CA60C0B20A9A4D608C6040EA02250F9AE4
:101930000B60100E40EA082B10020E9AC1F81451E9
:1019400040EA126A1398C0B240EA022401F584709A
:1019500080E8100C1798C1F821021898C1F81D02F0
:1019600019981099C0B240EA01200AA901F527513F
:101970000C9A0B96C1F884051C98C1F88065C0B21A
:1019800040EA02291D980D9AC0B2C1F88C9640EA2F
:101990000228C1F888860DF500511B9881F8800F48
:1019A0000DF54051209881F88C010DF540511598A6
:1019B00081F878010DF54051149881F888000DF5F3
:1019C0004051099881F874040DF54051169881F83A
:1019D00095010AA86DF0AEFC0BA86AF0E5F82DD1D0
:1019E00006F108010DF5AB604FF49C721994CDF827
:1019F0004080CDE91BA5CDF85090CDF888B074F0AB
:101A000021F9239C4FF4807204F5487AD4F820849D
:101A100002A800F5E35651466AF073F806A831466D
:101A200000F59650C0F8908A0AA86BF068FC33F075
:101A300015FF0BA86AF0B8F801F0DE860D68219951
:101A40000120C1E9000502F0E4BD58466CF0CAFD72
:101A500000F00D82324601287FF48AAE0420CDF8D2
:101A60009847CDF89C070AA800F517500DF5F361CB
:101A700021F0A3FB5BE901016AF0BDFC3FF477AE06
:101A8000084332463FF474AEDBE901400DF5F361E3
:101A90002290DBF80C001E90DBF810001C900AA8C6
:101AA00000F51759484621F05AFB5BF8045C58468C
:101AB000022D3FF45CAE0DF50050219409F10501B3
:101AC000F72290F8EC4552A874F03FF909A809F202
:101AD000011100F51B5040F2031200681D900DF536
:101AE000005090F8E8061B9002A800F5985074F09A
:101AF0002CF90DF5005009F2052140F2032290F86F
:101B0000EC071A9002A86AF0CDF9002D32463FF496
:101B10002FAE0AA80DF5F3616CF01FFE09A800F5C1
:101B20001B5050F8FC0C02283FF421AE002832462E
:101B30003FF41EAEDBF8000018900DF5F36021F0C5
:101B400058FB3246C0077FF413AECDB2032D3FF4ED
:101B50000FAE17910DF5AB60209452A9F72274F0E7
:101B60006FF802A90DF6D85001F598516AF06DFB97
:101B70000AA802A900F53D5001F5E35140F2032205
:101B800074F05EF83246042D3FF4F2AD22981E9AAE
:101B9000000A1C99DDE9175940EA02601F90080607
:101BA00040EA12201E90219820F0FF001990080AA8
:101BB0001C9001F0A9BD0DF500510020082581F809
:101BC000F2050DF5005140F20120A1F8F0050320C7
:101BD000C8F800000AA800F53D5A0B2D00F0FD8062
:101BE000E81F49F8040C745D20462EF019F983466D
:101BF000DFF87805B0460E466CF0B9F802460DF5F0
:101C000080500B4680F86C4CDFF85005D0F8D803B4
:101C100006A901F59651B46A4646C1F8900902A991
:101C2000DFF84C0501F5E351CDE900105046594667
:101C3000A0470AA8013500F52750D0F880051028E4
:101C4000CBD0C7E0066802A800F5E35804F108010C
:101C500008F1080069F08FFE002DCBF89059CBF801
:101C6000946900F06981DAE9F00108F10402DBF817
:101C7000943A69F088F90346C0B2102840F05F82B8
:101C8000962164E20DF5F3600DF5D2612EF0E6FECB
:101C90000AA8DFF8C41400F517560D226BF04AFBB2
:101CA0000DF5AB6031462EF0D9FE0AA86DF042FB6F
:101CB0000BA869F079FF25D102A806F1080100F50B
:101CC000985B4FF49C72584673F0BCFFD5F82064C3
:101CD00052A8494669F04FFE0DF6D85A49464FF4CE
:101CE000807292966AF0ADFDCDF8D86E0AA800F524
:101CF00017585146404633F0B1FD0BA869F054FF28
:101D000000F0E581086802F080BC58466CF06AFC7F
:101D100000F0ED820128324640F07C830120E8E2A9
:101D2000DFF848046CF023F80246DDF8D40900908F
:101D30000AA800F517580B4611461A464046234696
:101D400054F0A4F90DF580510020DFF810A4082507
:101D500081F8720C0DF5805140F20120DFF810B4CB
:101D6000A1F8700C06A901F596510320C1F8940959
:101D700002A800F5E35902A800F598560B2D00F0D3
:101D80006581E81FC1F8900919F8054020462EF03A
:101D900047F802460DF50050D0F8E8360DF5005032
:101DA00080F86C4FDAF8D8030AAC04F52754C4F86D
:101DB00080058C6A0AA800F53D50CDE9000B11465C
:101DC00030464246A04706A8013500F59651086BFB
:101DD0001028D3D0062002F018BC06A9002001F577
:101DE000965108600DF6D85000213BF089FC002880
:101DF00040F03B813EE108F108010DF50D6069F00E
:101E000077FD0AA8314600F517554FF4807269F046
:101E100082FD0DF500502946C0F8E84652A82EF084
:101E20001DFE0DF58050BAF1030F40F0B98190F816
:101E3000F002012840F054820DF58050DDF8E83EB4
:101E400090F8F1520DF6D85000F110020AA800F5F2
:101E50003D5452A96DF0FFFA0AA800F52751D1F8B8
:101E60008005002801F0E483D1F8844539E2CDF8FB
:101E700098470AA800F51755214628460DF024F981
:101E80005BF8041C02293FF472ACDBF80100F72276
:101E90001F900DF50050219190F8F80520900DF558
:101EA0000050DBF8051090F8EC0522900DF500507D
:101EB0001E9105F1110190F8F7950DF50050B0F85D
:101EC000F54552A873F041FF01200DF5D261CDF820
:101ED0009C070AA800F5175001225CF05FF96BF02F
:101EE00070FC3FF444AC5946DBF80010002904F0C4
:101EF00051830078002801F0DD83324601287FF409
:101F000037AC0AA80DF5D2616BF0F9F90DF0DCF8E9
:101F100058465BF8040C02283FF429AC1D900DF5DF
:101F20000050691D40F2031290F8EC051B9002A8C6
:101F300069F0B8FF01F0C0BB0AA8802100F5175571
:101F400061224FF08008284673F03FFF0DF50051E5
:101F50000020884E0AF56A7481F87C0F0AAA02F5FF
:101F600027528549CDF800802B46C2F890150421F0
:101F7000C2F88065C2F88415C2F8880502A80AA9CB
:101F800000F5985001F53D5221461FF07FFE58465E
:101F9000DBF830000E2857D1CDF800800AA800F5F4
:101FA0003D580AA800F51755744A404621462B466D
:101FB0001FF090FE0DF5005090F8680F002843D1F7
:101FC0000AA8414600F527580420CDE9001521460E
:101FD000D8F88125D8F88535C8F884058020C8F858
:101FE00080651546029002A800F598501E461FF025
:101FF00095FFDBF830000E2826D161486149C8F80A
:1020000080158021C8F88405C8F88855C8F88C6503
:102010000AA800F51750CDE9000102A80AA95A4BF9
:1020200001F53D5200F5985021461FF0F9FFDBF80D
:1020300030000E2808D10AF54A7016F05DFD014601
:1020400001283FF41DAE82E0062180E00DF58051AD
:102050000020C1F8D8020DF6D85001213BF050FB0A
:1020600000280AA800F5175604D021999520486049
:10207000012029E0B41C0DF6D85140F2045269F059
:10208000CDFB02A8214600F5E35040F20452851C26
:1020900069F0BEFB0AA8294600F53D5040F2045203
:1020A000841C69F0BBFB02A800F59850851C2146F2
:1020B00028466AF059FA219C294640F20452201D14
:1020C00073F043FE21460020086002F0A2BA0AA87D
:1020D00005F2825600F53D5008F10801051D02A8E1
:1020E00000F5E3584FF41072404673F0ABFDDFE8A3
:1020F00014F00C009D0D7C0DBC0D2F0D3F0EFF0E3E
:10210000130E1C0F590D3B0F120D0DF5005090F8DA
:10211000691F0AA86AF03FFC67F060FC0F4821467F
:1021200090F821330DF50050D0F8E8260DF5F36056
:1021300006F03CFA05460020022103F0D1B813490D
:102140000320032217F006FA002808BF9621012079
:10215000C9E9000102F05DBA25AD0700D09B03205C
:1021600010B20700DF760700FC73070048AD0700D8
:10217000FC700700606607007FFF020550660700DD
:10218000308107008491070000810700DC7607009A
:10219000087F07006C9F07001AB20700B29807007B
:1021A00090F80003012840F09B80DDF8E80DDDF891
:1021B000EC1DDDF8F02DDDF8F43D02AC0FC400207D
:1021C0000DF50D6100900AA800F5175601220923AC
:1021D0006CF02EFB0DF50050B0F8E845092C7AD0D4
:1021E0000DF500506BF037FE4FF00008B0F8EAB57F
:1021F0000BA800F517500568229873F021FD0AA876
:1022000000F52750C0F884550DF50050A0F86ABFBE
:102210000DF50050A0F8684F02A800F598540AA9DF
:1022200001F53D51204666F00BF90DF50050D9F847
:102230003020211DC0F8608F0AA800F517503AF031
:1022400087F9002844F0468202A840F67C1200F587
:10225000E3550AA800F5175169F05DFB0DF5005034
:10226000D0F8E045284604F10C013AF0CFF80028F8
:1022700044F030820DF500502346D0F8E0250AA83E
:1022800002A96CF05EFA0BA800F51750D0E9009493
:102290008568214650F804BC0DF50D602A4629F0EA
:1022A0002DF80C2D42F0D281DDF8D80D6CF0CFFE68
:1022B00002AD0FC520200DF50D6100900AA800F5B4
:1022C0001755012201236BF0D7FA0DF500506CF081
:1022D000FFF841F005830BA800F51750046800E0F3
:1022E000702421990120C1E9000402F092B9002074
:1022F00032460021C9077FF41DAAC5076FD14046A9
:1023000080212395802573F01AFDCDE900850AA868
:102310005FF8902104F56A715FF88C3100F53D504B
:102320001FF0A6FEDAF88005002840F0F080DAF809
:1023300084155546DAF8882502A800F5985063F010
:102340001DF80DF58050B0F80803002840F0DF803C
:10235000D9F83240D9F836B00AA80AAA5FF8CC11E9
:102360006AF0DAFDD5F880050E2840F0D0800DF532
:1023700000505FF8DC11B0F86C0F1D900AA80AAA93
:102380006AF0CAFDDAF880050E2840F0C0800DF52D
:1023900000505FF8F811B0F86C5F0AA80AAA6AF05A
:1023A000BBFDDAF880050E2840F0B180200EDDF884
:1023B00074A040EA0B202190200C5C4640EA0B40C0
:1023C00022904FEA1B4020904FEA1B201F900DF5F2
:1023D0000050AB46B0F86C5F002001F00CBE0AA8BC
:1023E000802100F53D50612273F0EFFC0DF50051A6
:1023F0000020C1F8E80902A804F54A7100F59850D8
:1024000016F014FB0DF58050B0F8080328B1D9F888
:1024100034007DE00D20FFF7C2B8D9F836100DF575
:102420008053D9F832004C460A0C83F80C230DF582
:1024300080530A0A83F80B230DF5805282F80A13A1
:102440000DF58052010E000C82F809130DF5805134
:10245000052281F808030AA802A96CF078F902A8FD
:102460000AAA5FF8D0126AF02DFDD9F830000E28C4
:102470004DD10DF580500DF580516AF07DFB0AA815
:1024800002A96CF064F902A80AAA5FF8F0126AF0D7
:1024900019FD4846D9F830000E2838D10DF5805086
:1024A0000DF5805123956AF067FB0AA800F51755D2
:1024B00002A86CF0D9FE02A80AAA5FF824136AF0F9
:1024C00001FD4846D9F830000E2820D10DF5805086
:1024D0000DF580516AF050FB02A86CF0C5FE012199
:1024E0000020DC46712981F062850DF500530A4613
:1024F0000131D3F8E839B0EB932FF3D1EA540DF55D
:102500000052D2F8E8290132CAF80020EAE7062092
:102510000121C6E9001002F07CB802206CF096FEA2
:102520000DF6D85020F065FEC0077FF402A9C8B2AE
:1025300003283FF4FEA80AA88B4600F517550DF6B0
:10254000D8516BF09DFC0BA86BF0A3FC3FF4F1A8F5
:10255000D9F8030005F119011F90EF22D9F80700FF
:102560001E90D9F80B001C90D9F80F0020900DF5A3
:10257000005099F8028090F8EC0519900DF5005084
:10258000B9F800A090F800061B9002A869F08AFC38
:10259000002C3FF4CEA84AEA0840109052A8CDF88B
:1025A00074B002A9EF2201F5E351D94673F048FB5C
:1025B0001E984FF000081C9A000A20996AF047FE06
:1025C0001F980D0A0021000A119095E20320CDF812
:1025D000D048CDF8D4080DF50D6020F00AFEC007F4
:1025E0007FF4A7A8C8B203283FF4A3A80AA88A4684
:1025F00000F517550DF50D616BF042FC0BA86AF064
:1026000082FE3FF496A8D9F8030005F11901139052
:10261000EF22D9F807001D90D9F80B002090D9F8C7
:102620000F001A900DF5005099F8028090F8EC0513
:102630001C900DF50050B9F8004090F80006149079
:102640000DF6D85073F081FBBBF1000F3FF471A879
:102650000AA80DF50D6100F51750054620F0E8FCBD
:102660000BA800F5175050F804BCBBF1030F3FF462
:1026700060A8D9F8080005F115010890EF22D9F8F3
:102680000400129099F802001890B9F80000179011
:1026900099F80E001690B9F80C0015900DF5005041
:1026A00090F8EC051F900DF5005090F8F0051E9085
:1026B0000DF5005090F8FC051B9002A869F0F2FBA4
:1026C000BBF1020FCDF864B03FF433A844EA0840F0
:1026D0000C90DDE91510EF2241EA0045DDE9171005
:1026E00041EA004011900DF50050D0F8EC4652A898
:1026F000CDF854A002A96AF0B4FB0DF5AB600DF65D
:10270000D8516CF0A0FD13981D99000A1D94DDF8B6
:1027100020B040EA01600E90080A209940EA01606A
:102720000F90200A4FEA11280D9000211A98000AF4
:102730000A9000201090DFE10520CDF89847CDF8F1
:102740009C070DF5F36020F054FDC0077EF4F1AF57
:10275000C8B203283EF4EDAF16910AA800F517554C
:102760000DF5F3616BF08CFB0BA86BF092FB3EF464
:10277000E0AF0DF50050691DEF2290F8EC950DF6D5
:10278000D85073F0E2FA0DF5005005F1F50113226F
:1027900090F8DC0615900DF50D60824673F0D5FAC1
:1027A000002C3EF4C6AF0AA80DF5F36100F5175BE7
:1027B000584620F03DFC0BA800F5175050F8044C8B
:1027C000032C3EF4B6AFD0F80510EF22D0F801008C
:1027D00012900DF5005008910BF1110190F8F805D9
:1027E0001B900DF5005090F8EC051E900DF5005073
:1027F00090F8F7850DF50050B0F8F55502A869F08E
:1028000051FB022C3EF495AF0DF50050CDF85090E1
:102810000B960DF5F361D0F8E806A3461D900DF573
:102820000050D0F8EC660AA800F5175020F01BFB0A
:102830000BA800F5175050E9010169F0DCFD3EF4EA
:1028400078AF08431CBFDDF89C0700283EF471AF49
:102850000BA8DDF8981700F5175401226068894627
:102860001390A0681F90E068199020691A900AA838
:1028700000F517505BF092FC54F8040C00283EF46D
:1028800058AF0BA901F517510968002903F082869A
:1028900000782090002803F03586209801287EF4E7
:1028A00048AF0AA8494600F517505BF08EFC0DF5BD
:1028B000005069F0EBFB7EF43CAF0BA8494600F5F5
:1028C000175422680AA800F517505BF067FC54F80B
:1028D000040C00283EF42DAF0BA901F5175109682F
:1028E00008297EF426AF016840681891090A41EA78
:1028F0000061000A179103F008BE04206CF0A6FCEA
:102900000DF6D85020F075FCC0077EF412AFC8B2A7
:102910000C4603283EF40DAF0AA80DF6D8516AF014
:10292000EEFC20F047FB0BA86AF0EDFC3EF401AF93
:102930004946D9F803001F90EF22D1F80B001C90F4
:10294000D1F80F0020900DF50050D9F8079090F8BD
:10295000EC0519900DF5005091F8028090F80006F2
:10296000B1F800A005F119011B9002A869F09AFACC
:10297000BBF1000F3EF4DDAE0AA80DF6D8516BF0A6
:10298000ECFE0BA800F5175050F8040C022818BFF5
:1029900000283EF4CEAE0BA80DF6D85100F5175521
:1029A00028681D900AA86BF0D8FE55F8040C022880
:1029B0003EF4BFAE01287EF4BCAE4AEA0840109057
:1029C0000BA8EF2200F51750056852A802A96AF07B
:1029D00048FA1C9A4FEA192020994FF00008CDF8C8
:1029E00078906AF034FC280A1C950C900D0A1D980A
:1029F00000211394000A0D901F98000A1190E4E53D
:102A000003206CF023FC0DF6D85020F0F2FBC00739
:102A10007EF48FAEC8B203283EF48BAE0AA88B4674
:102A200000F517550DF6D8516BF02AFA0BA86BF08C
:102A300030FA3EF47EAE0DF50050691DEF2290F89D
:102A4000EC051B9002A869F02DFA002C3EF471AE43
:102A50000DF5005090F8EF860DF50050B0F8ED96AA
:102A60000DF50050D0F8E9060F900DF50050D0F8A4
:102A7000E5560BA800F51754D4E93C01CDE91C102C
:102A80000DF500500DF6D85190F8E4A60AA800F50F
:102A9000175020F0E8F954E9010169F0ACFC3EF46C
:102AA00048AE08430E95CDF84CA03EF442AE0BA8BC
:102AB00049EA084800F51750EF22D0E9014AD0E969
:102AC0000395CDF878A052A8CDF868B002A96AF0B5
:102AD000C8F94FEA1A201F9440EA096012902806AC
:102AE00040EA192B200A2D0A11901C98010A1D9802
:102AF0000C910021000A0D90FEF7CFBE0AA901201B
:102B000001F52751C1F8084FC1F80C0F0AA800F5CC
:102B10001758A7F1D801404620F021FB0BA86AF016
:102B2000F2FB3EF406AE69F055FE139099F80200F0
:102B300010900DF50050B9F8004090F8EC05199090
:102B40000DF5005090F800061B900DF6D85073F06C
:102B5000FCF8D9F80F0108F221111290EF22D9F8F0
:102B600013010B90D9F817011A900DF50050D9F800
:102B70000BA1D0F8F0061D900DF50050D0F8F4062A
:102B80001C900DF5005090F8080714900DF50D609D
:102B900073F0DBF80DF500500DF5F36508F2112127
:102BA000132290F8F807159068F032FED9F8200249
:102BB00008F22E2118904FF4ED72D9F824021790E4
:102BC0000DF5005090F80C0820900DF5005090F88D
:102BD0001508169002A869F065F9BBF1000F3EF4E4
:102BE000A8AD10980DF6D851EF2244EA004010909D
:102BF00052A873F025F80DF5AB600DF50D616CF082
:102C000022FB1ECD0DF5D2601EC04FF4ED726CF0AC
:102C1000CBF902A802A900F598506AF022F912999E
:102C20004FEA1A200B9B119A40EA01600E90080AA5
:102C3000139940EA03600F901E984FEA13280D0A7B
:102C4000CDF84CA0000A6AF002FB1C98000A0C9018
:102C50001D98000A0D901F98000A11901A98000AFA
:102C60000A902099FEF719BE0AA9032001F5275101
:102C7000C1F80C0FA7F1D800C1F8084F20F0B9FA3D
:102C8000C0077EF456ADC8B203283EF452AD0AA880
:102C90008A4600F51758A7F1D801404620F08AF976
:102CA0000BA800F5175050F8045C022D3EF441AD1E
:102CB00069F090FD0B9099F8020012900DF500500C
:102CC000B9F800B090F8EC0519900DF5005090F8A7
:102CD00000061B900DF50D6073F037F8002D3EF4E3
:102CE00028AD0AA8A7F1D80169F055FE20F037FAFF
:102CF0000BA800F5175050F8045C022D3EF419ADF6
:102D0000D9F80710EF221391D9F80B100F91D9F8C9
:102D10000F100A91D9F813101A9199F802100E9118
:102D2000B9F8001040680D910DF500511C900DF59B
:102D3000005091F8041690F8EC05149104F11D016F
:102D40001D900DF6D85073F000F80DF500500DF5FC
:102D5000F36804F20D11132290F8F406159068F050
:102D6000A8FED9F81C0104F59571189040F2DE22F6
:102D7000D9F8200117900DF5005090F80807209021
:102D80000DF5005090F81107169002A869F08AF826
:102D9000002D3EF4CEAC1298EF22CDF824A04BEAE1
:102DA00000401090DDE90D1041EA00400D900DF556
:102DB000AB600DF6D85172F043FFB8E81E000DF578
:102DC000D2601EC040F2DE22B8F80010018098F8F0
:102DD0000210817002A802A900F598506AF041F82B
:102DE00052A80DF50D616CF02EFA13980F99000A98
:102DF000119A0A9B40EA01600E901E984FEA132830
:102E0000000A40EA02601290080A0B9940EA036047
:102E10000F90080640EA122B1F980D0A000A119025
:102E20001C98000A0C901A98000A0A9019E70AA840
:102E300000F5175402A869F0C8FB6CF09FF8012850
:102E400041F0E38398F8D5130AA800F5175015F060
:102E500019F8C1B2072941F0478100210D2201F084
:102E600068BA0AA868F0ACFF0BA86AF01CF840F03A
:102E7000298302A804F1080100F5E35468F0EAFC94
:102E80000DF50D6014F0DEFF02A80DF6D8556CF0BC
:102E9000E6F90DF5005090F8F01F0AA800F5175656
:102EA000304666F09BFD0DF5005098F8D53331465D
:102EB000D0F8E826284605F079FB00287EF48AAF92
:102EC0000DF50050234690F8F01F0DF5005090F8D6
:102ED000F30F009032A81F9A15F0FCF900940AA88D
:102EE00000F5175452A9209B0DF50D62204615F0F0
:102EF0007FFB0DF5005069F0C9F801F0898469F095
:102F000048FE03F016B802A90DF6D8506AF055FC39
:102F10000AA868F055FF0BA868F046FE7EF4F2AEF2
:102F200002A804F1080100F5E35068F0E1FC0DF59A
:102F3000005098F8D5330DF6D85290F8691F0AA8BA
:102F400069F029FD15F0E6F90DF5005090F8E80557
:102F5000022801F0E7810BA84FF4806100F51750BB
:102F60004FF4806950F8036C68F0A3FF02A80DF5D8
:102F7000D26500F5E35128461CF0D8FA2620C04956
:102F80008DF8AE070020BF4B0DF5F362CDF8A81702
:102F900008F56A718DF8AC07ADF89C07ADF8980795
:102FA000A7F1D800CDF8A467CDF8A057CDE9004926
:102FB0001FF05EF80AA800F52752D2F8080F002883
:102FC0007EF408AFD2F80C1F0DF50D60D2F8102F6B
:102FD00061F01AFE9DF8F90800283EF4FBAEBDF83A
:102FE000F4080B22BDF8F618081A0021000201307F
:102FF00080B201F09EB902A90DF50D606AF0DDFB0B
:103000000DF6D85014F01EFF0AA868F0D9FE0BA8E0
:1030100069F049FF40F0568202A869F03EF90DF5CB
:10302000005098F8D5330DF50D6290F8F01F0AA8FE
:103030006CF085F90DF5005090F8E855022D01F07F
:1030400071810DF50050B11C142290F8E945A7F1EB
:103050004800023072F079FE07F8474C0DF6D8525E
:1030600007F8485CCDF800900AA800F5175652A959
:10307000209B304615F0BCFA0DF5005069F006F8BB
:1030800041F050810DF50050B11C1F2290F8E94528
:103090000DF5F360013072F058FE17F8480C8DF80A
:1030A0009847002802F095820AA857F847BC00F517
:1030B00027554FF48061D5F804460AA800F5175645
:1030C00068F0F9FFCDE900A4A7F1480017F8433CE8
:1030D000A7F17804811D0DF5F362204667F0A4F98D
:1030E0004FF4806008F56A78A7F1F80A00900DF5B2
:1030F000D260414652463346C5F8E8BE1EF0EAFDAE
:103100009DF89006002802F0F883062502F062BAC6
:103110000AA868F055FE0BA868F046FD7EF4F2ADF3
:1031200002A869F0BAF80DF50D6014F08BFE02A844
:103130000DF6D85469F049FA98F8D5630AA869F0F1
:1031400065FA0DF50050294633466CF0DCF800288E
:1031500001F01F800AA86AF081FB0DF500500DF602
:10316000D85122460096D0F8E8360DF5F36005F008
:10317000E0F9DDF89807002841F0F381DDF8AC07AD
:10318000102841F0EE819DF8AB0723909DF8A90728
:1031900022909DF8A8071F909DF8A7071E909DF804
:1031A000A6071D909DF8A5071C909DF8AAB79DF84D
:1031B000A4079DF8A3179DF8A2279DF8A1379DF8B5
:1031C000A0C79DF89CE79DF89D879DF89E679DF898
:1031D0009F5701F02AB80AA800F5175502A86CF00D
:1031E0003EF80DF5005098F8D5332A4690F8691F3F
:1031F00002A800F5E354204615F08CF80DF5805038
:1032000090F8686C0DF58050022E40F0368290F8F0
:10321000690C00F069BF0AA868F0D2FD0BA869F03C
:1032200042FE40F04F8102A804F1080100F5E35B83
:103230004FF41072584672F005FD0DF6D85014F098
:1032400001FE0DF5005090F8F04F0AA800F5175652
:1032500002A800F59851304614F0EAFD0DF50D690D
:1032600098F8D53321463246484615F053F89DF874
:10327000D048022C41F036809DF8D10801F054B8B6
:10328000F0000012888007000AA823996AF037F836
:1032900014F0BAFD0BA868F087FC7EF433AD02A8E9
:1032A00005F1080100F5E35568F0A1FB0DF50D6689
:1032B000304614F0C7FD02A90DF6D8506AF07DFA29
:1032C00000950AA800F5175552A9209B32462846BA
:1032D00015F08EF90DF5005068F0D8FE41F022800F
:1032E0000DF50050A91C1F2290F8E945A7F17800C0
:1032F000013072F02AFD229B07F8784C0FCB02AC0C
:103300000FC42020012200900AA800F5175402A83B
:1033100000F5E35101236AF0C5FA0DF500506BF09A
:10332000D7F802F08C800DF5005004F109011F223E
:1033300090F8F055A7F1F80072F007FD0DF5005078
:10334000D0F8480F202842F0CE80A7F14809A7F115
:10335000F80109F1010069F039F807F8485C98F8BC
:10336000D5430AA800F52750D0F818A60DF540500F
:10337000407923900DF5405090F806B00DF540507F
:1033800001790120009032AD02A81F9A00F5E353A5
:10339000284614F09FFF0DF6D8512846224615F016
:1033A00053F8C1B2072940F09F869DF8C800002855
:1033B00003F0B2810AA8DDF8C94000F53D50802134
:1033C00000F118060AA800F5175072F0B8FCCDE914
:1033D000006A0DF1A80A9DF8CD30A91DA7F1780269
:1033E000504667F021F8A0B2220C010A230E2046B5
:1033F00067F0E4FD4FF4802200214FF48013CDF8F4
:10340000C026CDF8C8274FF40012CDF890364FF003
:10341000200CCDF8982702228DF8C4160DF5F36321
:103420008DF894160126CDF8EC06CDF8BC468DF843
:10343000CC178DF89C17CDF8F417CDF8C44707F8D2
:10344000BC1C0AA901F52751E34DC1F8180F8020D3
:10345000C1F80C5F08F56A75C1F8142FA7F1D802FE
:10346000C1F8086FC1F8103FC1F81C9FC1F820CF08
:103470002946009024A80AAB03F517531EF08EFCD2
:1034800024980E281CBF24980E2842F08B85239880
:103490000021002802F05085012027F8D6BC02F058
:1034A0004CBD0DF50D6014F0CDFC02A90DF6D85001
:1034B0006AF083F90AA868F083FC0BA869F0F3FCB2
:1034C00000F08B82D9F8000001F09FB80AA800F53F
:1034D000175402A869F079F898F8D513204614F02B
:1034E000D1FCC1B2072940F0FF85BC4902201F9BD7
:1034F000002216F02FF80028024600F01887084630
:1035000001F083B80AA800F5175402A869F05DF825
:103510006BF034FD219A012841F0788000210C22C3
:1035200000F007BF239506A800F596500DF5D2666A
:1035300000F51969D0F89C192091D0F8A0191F91B5
:10354000D0F8A4191E91D0F8A8191D91D0F8AC1983
:103550001C910DF5005199E8300291F890111B91E2
:10356000D0F8B42E02A800F5E35000F592716BF08C
:1035700058F9DDF8900600287EF42CACDDF89406AE
:1035800006F108011A900AF1AC006AF046FB209897
:103590000DF50D62CBF80C000DF6D8531F9851466F
:1035A000C8F800001E98C8F804001D98C8F8080064
:1035B0001C98C8F80C001B988DF874021A987C901F
:1035C0000020529023988BE8300200900AA869F0FE
:1035D000E2F919F0CFFF0BA868F0E6FA7EF492AB9F
:1035E0000D680AA800F53D5604F10801301D68F089
:1035F00039F90AA800F52750C0F8805506A9D0F877
:10360000800901F59651D1F8B02ACDE9006002A8F1
:1036100000F5E350229B00F120010DF5AB6004F0B2
:10362000A7FF012840F0F1870023022200F09EBE90
:10363000D1F8846502A800F5985A04F1080B0AF144
:1036400004004FF48072594672F0FAFAC9F83060FB
:103650002946D9F830310AA800F5175452462046B9
:103660002CF0F0FA0BA800F5175656F8040C0028B9
:1036700000F03C853468FEF734BE0DF5947990F87F
:10368000695C09F10200A11C142272F05EFB8DF846
:1036900029518DF8286198F8D5230AA800F517510B
:1036A000484614F04BFFC10740F01D850021092258
:1036B00000F03FBE02201D9002A802A900F598501C
:1036C00001F5E35168F0C1FD0DF5F3601FF091FDC8
:1036D000C00732467EF44CA8C8B203283EF448A87E
:1036E00044EA09401C901A910DF5AB6052A9F722EB
:1036F00072F0A6FA02A90DF6D85001F5985168F0BB
:10370000A4FD00200325199020980DF50D648DF877
:10371000E00804F111000DF5AB61F72272F015FB22
:103720001B980DF6D8518DF8DC0940F203121D9854
:10373000CDF8D80904F20D1072F007FB0AA904F2C3
:10374000112001F53D5140F2032272F0FEFADAF841
:10375000080F2C46CDF8E90C4FF480721E98CDF876
:10376000D9081F98CDF8D5081A988DF8E00A229844
:10377000DAF80B1F8DF8D4082198CDF8EC1C1999B4
:10378000C0B28DF8E85C0843CDF8D0081C98ADF8BD
:10379000DD08000CCDF8E49C8DF8DF08239800F5D7
:1037A0004871D0F8205402A800F5E35A69F049F8AE
:1037B000C8F8905A0AA800F517555146284632F025
:1037C0004DF869F0FEFF00F0F1875946DBF8000084
:1037D000324600F01BBF00BF0100200084910700AB
:1037E000D09B0320748A0700588A07005CB1070049
:1037F000387907000067070018992B4604F585669D
:10380000080C0D0E0D900AA800F53D5000F59072C1
:103810000E9200F58472069200F118020792179A30
:1038200000F5867B04300F90100E089088B2000AD5
:1038300003F108010A9090B2000A4FEA12490C9075
:103840000DF50D6068F054F80AA8514600F51754BC
:103850004FF4807268F00AF80DF500502146C0F868
:10386000E8860DF5D2602DF0F9F80B99DFE811F03C
:10387000090093096A0AD40A2D0B990BFF0B100C4F
:10388000300C0AA800F52750D0F88C4730461BF0C2
:10389000A7F93046594668F06EF823990420159B25
:1038A0005A4681F85C05C1F82845002481F82C357A
:1038B000D1F820145FF8DC000090504601940CF021
:1038C00022FE2199054601287EF4BAA80120012193
:1038D0008DF848010DF50D60CDF8D04D02F0E4BD36
:1038E00002A805F1080100F5985068F02DFE0DF5CD
:1038F0000050D0F8480F202840F0A88602A80DF507
:10390000AB6500F59851202267F082FF0AA829468E
:1039100000F51756202230460BF0C2FE0DF5805000
:103920000DF5F36531462246D0F8FC02CDE9000BD7
:103930000DF6D85000F592732846CDF8089037F070
:103940008DFF9DF89807002842F0CA86691C0DF586
:10395000D265102267F05CFF02A8294600F5E35407
:103960001022204638F0F4FD002842F0B3860DF511
:103970000050DDF8F82E5346D0F8E005CDE90040C0
:103980000DF6D85000F1200152A804F0F1FD0446D4
:103990000AA800F5175065F095FE012C7EF4A1AC45
:1039A0004FF0000A0225CDE900492A46CDE9026B15
:1039B0000AA800F51754534620462BF0FCFD0DF5E0
:1039C000005068F063FB00F06C86DDF88480952081
:1039D000C8F80400012000F077BE02A868F05DFC82
:1039E0000DF5405098F8D5330DF6D85290F8741074
:1039F0000AA86BF0A4FC0DF5005090F8E855022DD4
:103A000000F090840DF50050A7F1D80BB11C1422E2
:103A100090F8E9450BF1020072F097F907F8D74CDE
:103A20000DF50D6207F8D85CCDF800900AA800F5F6
:103A3000175652A9209B304614F0DAFD0DF50050C0
:103A400068F024FB00F0F58769F0A3F801F031B8C5
:103A5000186808F10801239002A800F598504FF467
:103A60008062994672F0ECF80DF50050314601F590
:103A70008A71D4F894A990F88061D4F890092290C2
:103A800008F21440D4F898B9D4F89C4920F014FAFC
:103A90000DF500510020C9E900AB4FF48062C1F878
:103AA000800E0DF50050C9F8084080F8846E229809
:103AB00049F8040C2398C9F80C000DF5005090F853
:103AC000824102A908F1140001F5985172F0B8F88A
:103AD0000DF500500DF5005100950DF50D6280F8C3
:103AE000864E002081F8850E0AA800F53D500DF69F
:103AF000D853414615F0C4F80AA800F52755D5F863
:103B00008025D5F884356BF082F940F02C84D5F807
:103B1000880500F07ABD0AA84FF4807100F51754AB
:103B200068F0C7F95FF848030DF50051012290F8DD
:103B300021330120C1F8E8060DF5F360214604F0B9
:103B4000B1FC002840F0CD8200200D2101F0C8BB5F
:103B50000DF5005090F8F34F002C00F00685CDF8DD
:103B600000B00AA800F5175A52A90DF5AB6233460A
:103B700050460AF01DFE0DF5005068F087FA40F03F
:103B80003E850DF500500DF6D8560AF102011F22B0
:103B900090F8E995B01C72F0D8F801208DF8D99D05
:103BA00000F0E6BC5FF8C8030DF5F36190F821233F
:103BB0000DF5005090F8693F0AA800F517500AF07B
:103BC000DCFF0DF5005090F8E805022800F017859D
:103BD00010F001050DF5005090F8EA0518BF45EA10
:103BE000002500200B2101F07BBB239849464FF4B0
:103BF0008072D0F820440AA800F5175A68F021FE18
:103C00000DF500500DF6D8580DF5AB625146C0F8D1
:103C1000E846404633466AF094FB9DF8D80D0028EC
:103C200000F0CD849DF8D90D00F0EBBC5FF8500496
:103C30000DF5F3612395B24690F821430DF5005040
:103C400090F8F03F0AA800F51755224628460AF0DA
:103C500094FF0DF5005090F8E865022E40F09A832D
:103C600068F097FF40B200F0CCBC5FF88C0490F88D
:103C700021A30AA869F0F2FD0DF500502146534634
:103C8000D0F8E8260DF5F36004F090FC002800F071
:103C90009D830AA869F0E2FD0DF500500DF5F36172
:103CA0002246CDF800A0D0F8E8360DF6D85004F042
:103CB00040FCDDF8D80D002840F05584DDF8EC0D0F
:103CC0002395102840F04F849DF8EB0DB1462090CD
:103CD0009DF8EA0D22909DF8E90D1F909DF8E80DE2
:103CE0001E909DF8E70D1D909DF8E60D1C909DF827
:103CF000E5AD9DF8E40D9DF8E31D9DF8E22D9DF8DE
:103D0000E13D9DF8E04D9DF8DC5D9DF8DDCD9DF831
:103D1000DEED9DF8DF8DA5E30DF500500DF6D855CD
:103D200090F8691F284665F059FE5FF84C05294652
:103D3000DDF8D82E90F821430DF5F360234604F00A
:103D400035FC88B10DF5005090F8691F0AA86BF09A
:103D500042FB0DF500506BF0B9FB0DF5F36004F07C
:103D60001AFB012840F0BD810020092101F0B8BAFA
:103D7000CDF800B00AA800F5175552A90DF5AB62B1
:103D8000334628460AF014FD0DF5005068F07EF920
:103D900040F035840DF500500DF50D66A91C1F226D
:103DA00090F8E945701C71F0D0FF229B8DF8D04847
:103DB0000FCB02AC0FC42020012200900AA800F50E
:103DC000175402A800F5E351012369F06BFD0DF5CE
:103DD00000506AF07DFB01F032830DF5005004F1D4
:103DE00009011F2290F8F055A7F1D80071F0ADFF3E
:103DF0000DF50050D0F8480F202841F077830DF1E1
:103E0000C80BA7F1D8010BF1010068F0DFFA0DF53E
:103E100040508DF8C850A7F17805102290F8048022
:103E20000DF540502946407923900DF5405090F80B
:103E30000690002047E91C0047E91E0002A86AF02E
:103E4000FBFB00960AA800F53D500DF6D85A00F18C
:103E50001802414650462B4665F0A4FCA7F1F8062F
:103E6000304664F079FE20200121A7F14805CDE914
:103E7000001B029051468DF8088142AB284632461D
:103E800037F0ECFC04F1240029461BF0EDF804F1B6
:103E90003500A7F1780168F0A7FF201D594667F0AB
:103EA000DEFC0DF50050239980F8EA9549EA0920D7
:103EB00041EA00200DF50051A1F8E8050DF500508C
:103EC0000DF5005180F81C86002081F8EB05504666
:103ED00065F0F8FB5FF8F8060DF5F3616AF08DFF09
:103EE000C0B2072840F08D830020072101F0FEBCFE
:103EF0005FF814070DF5F36190F821430DF540507C
:103F000090F874300AA800F51758224640460AF087
:103F100034FE0DF5005090F8E8A5BAF1020F40F01C
:103F2000018368F036FEC0B26BE30DF50D664FF409
:103F3000807168F0C0F801200DF5F361CDF8D0096B
:103F400032465FF86407012390F821430AA800F580
:103F5000175568F07FFC0BA800F5175B69F031FC82
:103F600000F07C83219A96E35FF88C0790F8214358
:103F70000AA868F04BFB0DF500506BF0A7FA0DF5A1
:103F8000F36004F013FB70B10AA868F03FFB0DF575
:103F900000506BF09BFA0DF5F36004F0FCF9219AE8
:103FA000012840F0338300200C2101F099B90DF570
:103FB00000505CF804BC05F1090140F2FB3290F8B6
:103FC000F00520900DF5005090F8EF051F900DF5CD
:103FD000005090F8EE450DF5005090F8ED05219059
:103FE0000DF5005090F8EC05229002A867F05AFFFA
:103FF00001204FEA1B451E900DF6D85002A90D3046
:1040000001F5E35140F2FB3271F09FFE21984946E1
:104010008DF8E10D22988DF8E00DCBEA0540CDF842
:10402000DC0D1E98ADF8D80D0020209A1F9BC9F812
:10403000300523988DF8E42D00288DF8E33D1D947C
:104040008DF8E24DCDF870B0ADF8DAAD65D12395BD
:1040500002A800F59855002193461C46284639F0E1
:104060004FFB002842F0E881D9F83005010A042905
:1040700002F2E2812299295468F0B6F802F2DC815A
:104080002199295468F0B0F802F2D6811D9929547B
:1040900068F0AAF802F2D0812C5468F0A5F802F278
:1040A000CB8105F800B05146D9F830050130C9F888
:1040B0003005284603F007FAC0B20E2842F0BC8152
:1040C00002A81C9900F5985003F0FDF9C0B20E2823
:1040D00042F0B28102A8239900F5985003F0F3F959
:1040E0002CE0882091E2000A40B21DE1356802A868
:1040F00000F5E35004F10801043040F6781271F045
:104100009FFD0DF50050C9F89059D0F8E0251C2A04
:1041100080F084828C24FEF7E4B802A8012100F527
:10412000985039F0EDFA002842F086810DF6D8500B
:10413000011D02A800F5985003F00AF9C0B20E283C
:1041400042F07A8102A808F1020400F5985140F289
:10415000045267F063FB02A8214600F5E35040F2E9
:10416000045200F1020867F0A4FC0AA8414600F5D9
:104170003D5040F20452851C67F04AFB2046294618
:1041800068F0F2F9301D214668F0EEF9002002F0E7
:1041900056B900200DF5F364CDF8A4071022CDF830
:1041A000A0072146CDF89C074FF01008CDF89807DE
:1041B00002A800F5E35027F0A1F80AA868F026FA53
:1041C0000DF5005029463346CDE90048D0F8E826E1
:1041D0000DF6D85004F0CCF9012840F05E829DF82D
:1041E000A70723909DF8A50722909DF8A4071F908C
:1041F0009DF8A3071E909DF8A2071D909DF8A107AA
:104200001C909DF8A6B79DF8A0079DF89F179DF8F4
:104210009E279DF89D379DF89CC79DF898E79DF8CF
:1042200099879DF89A679DF89B57C9B2DBB241EA1E
:10423000002043EA02221D99EDB2C2EA0040CDF807
:10424000CD001C985FFA88F41F9A45EA0C25C0B28D
:1042500044EA062440EA01201E99C4EA05448DF888
:10426000C8E0C9B2CDF8C94041EA0221CDF80090BA
:104270000DF50D62C0EA0140CDF8D10023988DF80C
:10428000D7002298C0B240EA0B20ADF8D5000AA8AA
:1042900052A900F51759209B484614F0A9F90DF5CD
:1042A000005067F0F3FE3DD10DF50050A7F1780501
:1042B00009F102016AF0B1F807F8784C0AA800F594
:1042C00027500DF5D26629462022D0F88409239084
:1042D000304665F0FDF80020402800F0728769F054
:1042E00071FCF9E70DF5F36509F10201A81C142230
:1042F0009DF8D16871F029FD8DF899670DF6D852B7
:104300008DF89847CDF800B00AA800F5175452A9C7
:10431000209B204614F06CF90DF5005067F0B6FEB6
:1043200000F0368368F035FC5FF8481B6BE1002134
:104330000A22002300240025CDE93A213CA939C1F5
:104340000AA800F517543AA920462BF077FB0DF583
:10435000005067F09BFE40F0D68702A800F5E350BE
:10436000851C00F0D9BF05F5B16533CD8DE833006C
:104370000AA868F010FB2BF01EF90DF5005067F04D
:1043800085FE7DF472AE0AA8211D00F53D50851C06
:10439000FDF78EBE0DF500500DF6D8592294A91CDC
:1043A00090F8E94509F10200432271F0CEFC002E9D
:1043B0008DF8D94D8DF8D86D00F089819DF8DA0D12
:1043C000002840F08481022001F086B90020B14627
:1043D0000DF6D8562395CDF8E40D1022CDF8E00D5A
:1043E0003146CDF8DC0D4FF01008CDF8D80D02A8FD
:1043F0006AF022F90AA868F009F90DF5005029467B
:104400005346CDE90068D0F8E8260DF5F36004F0D6
:10441000AFF8012840F08F819DF8E70D20909DF8BE
:10442000E60D22909DF8E50D1F909DF8E40D1E907D
:104430009DF8E30D1D909DF8E20D1C909DF8E1ADF7
:104440009DF8E00D9DF8DF1D9DF8DE2D9DF8DD3D0A
:104450009DF8DC4D9DF8D85D9DF8D9CD9DF8DAED3D
:104460009DF8DB8DC9B2DBB241EA002043EA0222AB
:104470001C995FFA88F6C2EA0040CDF80D015FFA98
:104480008AF01E9A40EA01201D998DF808515FFAC2
:104490008CF5C9B246EA042441EA022145EA0E2518
:1044A000C5EA0444CDF80941C0EA0140CDF8110144
:1044B00020980DF5AB628DF817014B461F98229995
:1044C000C0B2CDF800B040EA0120ADF815010AA84D
:1044D00052A900F5175B58460AF06AF90DF500502D
:1044E00067F0D4FD40F08B800DF50050A7F1780502
:1044F0000BF1020169F091FF07F8784C0AA800F56A
:1045000027500DF50D6629462022D0F88409229007
:10451000304664F0DDFF0020402800F00F8769F08E
:1045200051FBF9E70DF500500DF6D85923943446A8
:1045300090F8E96509F1020008F10201432271F0E7
:1045400004FCBAF1000F8DF8D96D8DF8D8AD00F0EC
:10455000F8809DF8DA0D002840F0F380002501F086
:10456000C3B901209AE00220E6E000200DF6D856FB
:104570008DF8D80D0DF50050002C18BF741C90F864
:10458000F01F0DF5005002942A4690F8F13F0DF50A
:10459000005090F8F20FCDE9000B0AA868F0FBF983
:1045A0000AF06EFA5FF8C80D0DF5F3616AF025FCAC
:1045B000C0B2072825D10020062100F091BE239526
:1045C00008F102059DF8D99D4AA8294667F0FEFE2C
:1045D0005FF8F4BD0DF500500DF5F36190F8F03F74
:1045E0009BF821230AA800F5175630460AF0C5FAB1
:1045F0000DF5005090F8E845022C40F0608268F01C
:10460000C8FA5FF81C1E51F82000219A0121C2E966
:1046100000100DF5665D0BB067F0F4B80AA802A9AA
:10462000A2F110036AF08DF8D6E9002956F8041CAF
:10463000B4680AA8A2F10C0300F517501AF008FCA0
:10464000B0680C2808BF102C00F052825FF8640E8E
:10465000A7F1F8025FF8683E67F0DDF80DF6D8596B
:1046600005F1080109F104004FF48072DBF80060E5
:1046700071F0E6FADDF8D82EA7F1F8035FF88C0E9A
:10468000494600902046CDF8D86D2BF091FA219A3A
:10469000002800F023868820B8E70220219A40B243
:1046A00009E202A8211D00F5E35040F20452851CE6
:1046B00067F0AEF8DDF88480294640F2045208F134
:1046C000040071F042FB0020C8F80000A1E79DF84B
:1046D000DB0D09F10401002800F00B870DF50D65D5
:1046E000202267F095F89DF80C1E0AA800F51756D1
:1046F000239A09F13503304664F0ECFF6AF07FF845
:10470000C0B267F08CFA40009DF8D81D002900F077
:10471000E0870025022838BF01259DF8DA2D81F0B9
:1047200019809DF8D91D8A4202AA02F5E35800F0CB
:10473000D38701F015B80320219A40B25FF8581FC3
:10474000BAE19DF8DB0D09F10401A846002800F04C
:10475000F786A7F14805202267F05AF89DF80C1E4D
:104760000AA800F5175609F135034246304664F0B1
:10477000B1FF6AF044F8C0B2B0FA80F040094600D8
:104780000AA800F53D5000F188089DF8D80D48B101
:104790009DF8DA1D022E80F0F1879DF8D90D814237
:1047A00040F0EF874FF0010A00F0EFBFCDF86090C6
:1047B0000AA805F1080100F53D5067F099F8E0B24C
:1047C000032840F042860AA80DF50D6900F517553B
:1047D0000AA800F53D52494628460BF00EFC68F049
:1047E000F0FF7EF4F3AFDBF8004002A800F598502C
:1047F00005F10801043067F0BEF8DDF8D809C8F803
:104800003040022841F04D830024012501F093BD82
:104810000DF50050A11C1F2290F8E955A7F1F800F2
:10482000013071F092FA07F8F85C0DF6D85198F85B
:10483000D5230AA800F52750D0F804560DF50050EE
:1048400090F8F10F23900DF5005090F8F2BF32ACC4
:10485000204613F0F9FDC1B2072941F06A830AA886
:10486000802100F5175071F06AFA9DF8CD30A11D36
:10487000CDE900A52AA8A7F1F80265F0D5FD9DF8BD
:10488000C800DDF8C950002801F0EB80C5F3072609
:104890004FEA15494FEA156A69F038FF00214FF4D5
:1048A000802207F8A41C4FF4801307F8D41C0AAC2C
:1048B00004F527548DF8CC17CDF8C827C4F8640F39
:1048C0004FF40010CDF89807202027F8780C8020AE
:1048D000C4F8382FA7F178020090A7F14800C4F877
:1048E000083FC4F8345F08F56A748DF89C17CDF85A
:1048F000F417CDF8C4570AA901F5175321461DF046
:10490000C5FA57F8480C002841F0128357F8400CBC
:10491000202841F00D8357F8441C1F2211F8010B89
:1049200007F8780CA7F17800013071F00AFA69F005
:10493000EDFE0021A7F1480207F82C1C202147F8C2
:10494000301CA7F1780147E90E01022047F83C0C22
:104950000DF5F36047F8400CF14847F8440C01208E
:1049600047F8480C8020009024A80AA901F51753A5
:1049700021461DF013FA24980E281CBF24980E28F7
:1049800041F0D682A7F1D800DDF8C95001F07CB81B
:104990000DF50050A11C1F2290F8E96509F10100F6
:1049A00071F0D3F98DF8D0680AA800F527504FF4BC
:1049B0008061D0F804660AA800F5175467F079FA08
:1049C000CDE900A60DF5D2669DF89D37A91D3046AC
:1049D0004A4665F029FDDDF8990708F56A7547F83C
:1049E000480C6AF0A6FAA7F1D800A7F148022946B8
:1049F00023461DF06FF917F8D80C00287DF4EAA9BA
:104A00000AA8294600F5275AA7F1D800CDE9006B7E
:104A1000DAF8098FDAF80D9F42464B461DF08CFC00
:104A2000DAF8080F0E2841F0388017F8D46C01F03E
:104A30003DB80DF500500DF5D264B11C1F2290F861
:104A4000E955601C71F081F998F8D5035E468DF840
:104A500090564FF4806123900AA800F5175B5846E2
:104A600071F06DF917F8D33C0AA800F52755063602
:104A70002246D5F804063146CDE900A0A7F1F80A90
:104A8000504665F0D1FCD5F8090F08F56A7447F86F
:104A9000480C6AF04EFA0DF5F360A7F14802214682
:104AA0005B461DF017F99DF89807002800F09585E2
:104AB0000620219AC0B29B4951F82000A6E50DF5C9
:104AC0000050B11C432290F8E9A566F0A1FE8DF8D4
:104AD000D9AD002C9BF821A38DF8D84D00F0568558
:104AE0009DF8DA0D002840F05185002501F0EFBA5D
:104AF000DDF8D80D56F8045CD6E900A46AF0A7FAF0
:104B000002AE0FC620200DF50D6100900AA800F539
:104B100017560122012369F08BFE0DF5005069F054
:104B2000D7FC3DF4D8ABCDE922B402A806F10801C8
:104B300000F5985067F008FD0DF50050D0F8480FCB
:104B400020287FF483AD02A80DF5F36400F5985199
:104B5000202266F063FE0DF5AB662146202230462A
:104B60000AF09EFD0DF580502399CDE9005AD0F84A
:104B7000EC320DF6D85000F58A723046CDF8089028
:104B800064F022FD0028239000F0098700254FF0F3
:104B9000000A00F058BF23983246AB461F966AF0D1
:104BA000C6F819980DF50D61029001221B9801239A
:104BB0000390229804901C980590202000900AA849
:104BC00000F5175468F06EFE0DF5005069F080FC9A
:104BD00000F0BA8502A804F1080100F5E35067F07F
:104BE000B3FC0DF50050D0F8484F2098A0BB0BA99E
:104BF000002001F51751082241F8040C08600AA9A9
:104C00000DF5AB6001F5175126F078FB0DF500505E
:104C100090F8EF0508900DF5005090F8EE950DF521
:104C2000005090F8ED050C900DF5005090F8EC0553
:104C300017900DF5005090F8E80518900DF500500C
:104C400090F8E9050A900DF5005090F8EA050D90EE
:104C50000DF5005090F8EBB518988DF898070A9864
:104C60008DF899070D988DF89A0717988DF89C077D
:104C70000C988DF89D0708988DF89F0720468DF8B1
:104C80009BB78DF89E971AF0FBFC02A802A90DF5C0
:104C9000F36400F5985001F5E351224637F06EF8C1
:104CA00006A8002600F596500E9A169B8665239856
:104CB000D0F820140820CDE9004050460BF023FC2A
:104CC000012840F098870AA82C2200F52750D0F838
:104CD000A0570AA800F5175802A800F5985166F0E9
:104CE000E8FE1F9C204619F07BFF0E99204666F0D7
:104CF00042FE239C41462C2204F22C50C4F8285535
:104D000071F023F80620CDF8D06D84F85C050221FF
:104D1000169884F8580502208DF8480101F0C2BBAE
:104D200001002000748A0700487107006C7A0700B0
:104D30008491070030710700406C0700D5A206007F
:104D40000D920600239C504632463546D4F8201476
:104D50000BF0BAF9D4F8202406A800F596504FF0CD
:104D60000008C0F89089C0F8948902A800F5E350C3
:104D70001D99CDE900100AA800F517540F9B514664
:104D800020460BF0E5FB0BA867F03CF840F0DC8414
:104D90000BA804F1080100F517504FF47F7200686A
:104DA00022900DF6D85070F04BFF0DF500502E46B6
:104DB000D0F8EC490DF50050D0F8F0A90AA800F59C
:104DC0002750D0F88496284619F00AFF0F992846F4
:104DD00066F0D1FD23984FF0030B1D994FF47F72BD
:104DE00080F830150DF6D85180F85CB5C0F82895DC
:104DF000C0F82C4552A86AF0FFFA2298032153907C
:104E00000DF50D60CDF84C45CDF850A58DF848B1A5
:104E1000CDF8D08D01F02BB823983246B14669F019
:104E200086FF11980DF50D61029001221298012361
:104E300003901E9804901F980590202000900AA8C7
:104E400000F5175468F02EFD0DF5005069F040FB99
:104E500000F07A8402A804F1080100F5E35067F03D
:104E600073FB0DF500500DF5D261D0F8484F0AA83C
:104E700000F51755079A229B67F0ECFC0BA866F02B
:104E8000C1FF40F061840BA805F1080100F517503F
:104E90004FF48072066802A800F5985868F0B6FBD7
:104EA00006A81A9900F596504246D0F830310663AC
:104EB0000DF5F3602AF044FFDDF89807002801F0B3
:104EC0005E81DDF89C57FCF7BABD239890F85C55DD
:104ED000072D01F0CA80E91EC8B2042828BF0221AC
:104EE000C9B2022900F01687002941F0BE8023993B
:104EF0000025D1F8202491F83005D1F82C1506AB07
:104F000003F59653C3F89059C3F8941902A901F513
:104F1000E3513346CDE900010AA800F51754514684
:104F200020460BF015FB0BA866F06CFF40F00C84DC
:104F30000BA80DF6D8586AF058FAD0F8009066F031
:104F4000DBFE0DF5005023990DF5A47A4FF47F7226
:104F5000D0F8EC490DF50050D0F8F069D1F82C05E7
:104F60002044C1F82C050AF1080068F0D9FECDF8FC
:104F70004C450AF10404CDF85065CDF84C918DF8FC
:104F8000485100200021CDF8D00D0DF50D6038F00E
:104F9000B7FB00287DF469A80DF50D60214600F0EF
:104FA0006FBF2398D0F820846AF0E3F8D0F88459D2
:104FB000B5F5806F40F02683239890F85C050728AC
:104FC00001F053800338C1B2042928BF0220C0B2C7
:104FD000012800F0EE87032841F047800AA80F99C6
:104FE00000F517544FF4806220460AF0FDFB0BA831
:104FF00066F008FF41F06E8302A8211D00F5E3541E
:1050000040F2144266F032FC239D3046D5F8281554
:1050100050F0F4FE03460846D5F854156FF0704280
:10502000914201F01A80CDE900040022239800F299
:105030002C5038F042FE002841F00F802399324670
:10504000D1F85405D1F828350130C1F8540591F84C
:10505000580506A901F59651CDE900045046D1F84E
:10506000A01D029141460BF098FA01F00ABA23986C
:1050700090F85C05042840F00C832398324690F8A1
:105080002C35D0F8201450460BF022FA044601E3E8
:1050900023985146D0F820240AA800F52750D0F8CC
:1050A0008406009002A800F5E3540F9B204666F0AA
:1050B0002BFA06A800F59650D0F89009002800F0C9
:1050C000128306A800F59650D0F89459FCF7B7BCA7
:1050D00023985146D0F820240AA800F52750D0F88C
:1050E000885AD0F8840600900AA800F517590F9B3B
:1050F000484666F009FA0BA866F084FE40F0248367
:105100000BA809F1080100F517584FF48072D8F880
:10511000006002A800F5E35A0AF1040070F090FD67
:1051200006A800F596540998C4F890692AF078FE0C
:10513000069BCDF89837012323635FF81434CDF82C
:105140009C570DF5F365D4F8902A02ACC8E90053DA
:105150005346CD6B04F598545FF83014CDE900291F
:1051600002915FF834145FF8342448F8044CA847DF
:10517000102840F0738406A800F59650006B1028A4
:1051800040F06C8406A80DF6D85100F596504FF407
:105190007F72446B52A86AF02FF9082008218DF81D
:1051A00048010020CDF8D00D0DF50D60539438F076
:1051B000A7FA00287CF459AF0DF50D60214600F0E8
:1051C00069BEA7F148055FF89014202266F020FB25
:1051D00068F049FA402C02D068F0B9FCFAE7A7F170
:1051E000D8065FF8AC14202266F026FB0AA800213E
:1051F00000F5275001224FF0000BC0F8281FC0F81F
:105200002C1F0DF5D261304609F084FA57F8280CAE
:10521000A7F1480422900DF5F36557F8240C2146B8
:10522000209005F1500066F01AFB05F12800314688
:1052300066F0EBFA2846214666F0E7FA09F1080025
:10524000294668F0B5F909F1800056F0DEFD0BA89B
:10525000209900F517580DF5F3662298C8E91D014D
:105260003046494648F804BCC8F800B065F01EF85E
:105270005FF8384532A930461022A047239D082206
:1052800028BA48E901B00AA800F517513046A047EE
:10529000304651462A46A0470AA8314600F5175421
:1052A000C02266F083FBA7F1F8052146284665F089
:1052B0004CF868F0B6FD0AA802A969F03CFA58F863
:1052C000040C002840F0BB800BA8002100F5175902
:1052D000052209F1040539CDFFF72EB800200A2177
:1052E00000220023002424AE32C627A90DC10AA83B
:1052F00000F5175424A920462AF0A0FB0DF5005014
:1053000066F0C4FE06D0DDF884B09520CBF804002A
:1053100001200FE008F10205211D284667F024F95D
:10532000DDF884B0294640F204520BF1040070F01D
:105330000CFD0020CBF80000FFF76BB9A7F1480582
:105340005FF80C16202266F063FA68F08CF9402CA6
:1053500002D068F0FCFBFAE7A7F1D8065FF8281640
:10536000202266F069FA0AA80DF50D6100F52759AB
:105370004FF0000A30460122C9F828AFC9F82CAF17
:1053800009F0C8F957F8280CA7F148050DF6D854CC
:10539000209004F150002946202257F8249C70F0F8
:1053A000D4FC04F12800314666F02FFA2046294645
:1053B00066F02BFA0BF10800214668F0F9F80BF1C2
:1053C000800056F022FD0BA80DF6D85600F51758B0
:1053D00020985946C8E91D09304648F804ACC8F879
:1053E00000A064F06BFA5FF8A85642A9304610227C
:1053F000A847229C082220BA48E901A00AA800F583
:1054000017513046A847239930462246A8470AA894
:10541000314600F51754C02266F0C8FAA7F1F80526
:105420002146284663F022FF68F0FBFC0AA802A987
:1054300069F081F958F8040C002800F0A6820BA846
:1054400000F517500068FFF7E0B80DF50D63A146B1
:105450000FCB02AC0FC469F00DFA0AA800F5175A79
:105460000AA800F53D510923504601F02BFC0DF52B
:105470000050B0F8E845092C3EF4A8A90DF50050FD
:10548000DBF800500AF108014FF41662B0F8EA05A3
:10549000239002A800F5E3500830824670F0D0FB5C
:1054A0000DF580512398C8F89459A1F86A0C0DF5B0
:1054B0008050A0F8684C8220012C08BF202D7EF47B
:1054C00087A90DF500505146D0F8C8250AA867F005
:1054D00062FA19F0D3FF5BE90101084300F0F68698
:1054E0008A20FEF775B98920FFF78FB88720FFF76C
:1054F0008CB8A7F14808202266F0DBFA09F12400F5
:10550000A7F1780990E83C0049463CC10AA800F59B
:10551000175552A94FF4827266F0FDF90DF50D662C
:105520000DF5AB6229465346304668F00AFF9DF8F8
:10553000D008002800F067839DF8D108FEF792BBE1
:10554000A7F1F80066F08BF909F12400A7F1580AD9
:1055500090E86C0051466CC10AA800F5175552A995
:105560004FF4827266F0D7F9A7F148060DF5AB62E9
:1055700029462346304668F0E4FE17F8480C002818
:1055800000F0618317F8470CFEF7CDBC9DF8DB0DEA
:1055900008F10401002800F08683A7F1D805202235
:1055A00066F036F90DF50D669DF80C1E239A08F18C
:1055B0003503304664F08EF8304620212A462023F9
:1055C00063F054FCC0B2B0FA80F04009460000F02D
:1055D00053BD052568B2FEF7A7BEDDF89D370DF572
:1055E000F360DDF899272146CDE900A92293914681
:1055F0001CF0A2FEDDF898070E2840F074829DF89A
:105600009C0777E202A8314600F598504FF49C724F
:1056100070F016FB2399072081F85C050DF580508A
:1056200090F83C04072800F020850338C1B2042913
:1056300028BF0220C0B2032800F0D184012840F026
:105640000F850AA84FF4847200F5175402A800F5DC
:10565000985166F00BF90DF5005041462246D0F8FE
:10566000E8360DF5005090F8EC0600900F98CDE963
:10567000010550460AF091FF054601287CF4DFA998
:105680000DF5005090F8EC360AA800F5175200F01E
:10569000F4BE002400200DF50D65CDF8D00D0620D8
:1056A0008DF84801284606218DF8494138F028F840
:1056B00000287CF4DAACDDF8D00D010A04293CF6B0
:1056C000D4AC2C54DDF8D00D0130CDF8D00D00F065
:1056D000F0BE02A901F5E3580025022838BF0125D4
:1056E00000200321FCE506A804F1080100F5965608
:1056F0004FF48072D6F8945902A800F5985867F0D4
:1057000085FF10984FF00009CDF89C07139835637A
:10571000CDF898972AF084FB0B460DF5F36102460D
:10572000D6F83001CDE90001114614981A460290CE
:105730000AA800F51754434620460AF021FE0BA89C
:1057400066F060FB00F070830BA800F51750056849
:10575000FCF775B90120C2FA50F102A800F5E35830
:10576000229A0DF6D8508DF8DA1D0DF5F36109F087
:10577000C7FAC1B207297EF475AAB1E70120C1FAC0
:1057800050F08DF8DA0D4FF0000A0DF50D644AA9BE
:105790001F2266F043F804F11F0042A966F05FF88B
:1057A000A7F1D80521463F2266F032F83EB1022E1D
:1057B00022D10025BAF1000F00F08B8094E09DF813
:1057C000DA2D0023BDF8D80D9DF80C1E40EA0240EA
:1057D0000293020A00F00103CDE9002B0AA800F5AC
:1057E00017554246284609F04BF90DF6D850294680
:1057F000452270F025FA6BE08DF8E8903AA9481C34
:105800001F228B4668F060FB05F11F01204668F0FF
:10581000B4FD0AA84FF0000A00F52759A7F1F806D1
:105820001022C9F8E8AE3146C9F8ECAEC9F8F0AEBE
:10583000C9F8F4AE02A868F0FFFE9DF80C1E4246BF
:1058400000940AA800F517543346204663F0AAFFD7
:1058500042AE304663F080F99DF80C0E21468DF87B
:10586000280101200295A7F14805CDE9000B4AABBC
:1058700028463246D84635F0F1FFA7F17800294690
:1058800019F0F2FB0DF6D85BA7F1F8010BF135002A
:10589000102257F8789C57F8746C57F8704C57F8EA
:1058A0006C5C70F052FA0BF10400414620228DF836
:1058B000DBAD70F04AFACDF8085ECDF8044ECDF8B5
:1058C000006ECDF8FC9D0AA800F5175063F0FAFEB3
:1058D0000125239A0DF6D8500DF5F36109F010FA61
:1058E000C1B207297EF41FAB00200821002200234B
:1058F000002402AE06F5E358F5E4DDF891264146B2
:10590000DDF89536CDE900492AA8144623931CF00A
:1059100013FDDDF8A890B9F10E0F40F082829DF8DA
:10592000AC00002800F0708468F0F9F865F046FBE0
:105930000AA9CDF800A001F52752F549C2F8F20EE8
:105940000020C2F8EC1E224607F8F00C27F8F80CED
:105950000AA94FF4806001F51751CDE9011032A872
:10596000239B41461CF028FB329800287DF4CDABE8
:105970003498202840F0BD8533990DF5D2601F2260
:1059800011F8015B70F0E1F94CE20BA8002400F57E
:10599000175B0521DBE90150DBE90323A9E70AA82E
:1059A000294600F517545246204662F087FD0DF552
:1059B0000050B0F8E855092D39D00DF5005068F0C9
:1059C0004FFAB0F8EAA50BA8229C00F5175BDBF8AC
:1059D000006065F04BFF0AA8CDF8946600F52751EA
:1059E0000DF50050ADF890560DF5D263A0F86AAFF2
:1059F0000DF50050C1F88465A0F8685F0DF54050C2
:105A0000B0F8CC08ADF898060DF5805090F8F22269
:105A1000D1F8E00E0DF50D61CDE900400AA800F5C2
:105A2000175001F011FA67F0CCFE00F021840BA8AA
:105A30004FF0000A00F5175002254FF0000900262C
:105A400004684FF0000B0DF5AB6063F03BFE23984C
:105A5000219900283CF446ACFDF7A5BF8825FBF74B
:105A6000EEBF00204FF480218DF8C4068DF8940617
:105A7000CDF8EC060DF5D260CDF8C0164FF48011CC
:105A8000CDF89016CDF8BC5623990022002900F0DD
:105A90001D820121ADF89AB719E20AA868F0EAF967
:105AA0007CF498A969F065FBD0F80C6F0AA94FF453
:105AB000806001F51751CDE90010A7F1D800294603
:105AC00042464B461CF004FA0AA868F0D3F904D009
:105AD0000AA868F0CFF97CF47DA906F00100002146
:105AE0000322FEF726BCDDF898070E287EF4E0AF0F
:105AF000DDF89C07209002A80DF5F36800F5E3514E
:105B0000404619F013FDDDF89807A7F17805DDF898
:105B10009C17DDF8A027DDF8A437F360B2600DF51F
:105B2000D2627160306017F8D33C0AA800F5275A9A
:105B3000DAF888060AA901F53D518831CDE900104F
:105B40002846314664F070FC03204FF480718DF8D4
:105B5000B70700208DF8B207A7F14802CDF8A407D7
:105B6000ADF898072298ADF8B017DAF8091F47E9A1
:105B70001090DFF8B00BCDF8AC171021DFF8A03B88
:105B800047E912804FF48060CDF8A0172146CDF888
:105B90009C57CDE900B032A81CF042FA32980E288A
:105BA0001CBF32980E287EF483AF239AA7F1D80049
:105BB0000DF6D85112F048FCC1B207297EF479AF36
:105BC0004FF48060229BCDE900B00DF5F3602146D3
:105BD0004A461CF07DF9DDF898070E281CBFDDF859
:105BE00098070E287EF464AF20980021082200F068
:105BF0000100FEF79EBB054602A800F5985063F031
:105C000061FDFBF71CBFA7F1D805B11C681C1F2262
:105C10009DF8D14870F099F807F8D84C0DF6D85196
:105C2000CDE900890AA8239A00F517502B4663F0A6
:105C30007EFD0DF50051012091F8E815002908BFFF
:105C40000220FEF761BDA7F17804B11C601C1F2281
:105C500017F8475C70F079F8A7F1F80007F8785C5E
:105C6000CDE9000A0AA800F517560DF6D8514246AC
:105C70002346304663F05BFD0DF5005066F006FAF2
:105C800000F0F6810DF50050B11C1F2290F8E99547
:105C90004AA870F05AF842A8A7F1780165F0DFFD34
:105CA0000126FEF76DBDA7F1480B202267F001F930
:105CB00008F12400A7F1580690E83C0031463CC1A9
:105CC000A7F1D805681C4AA966F080FB07F8D89CA4
:105CD0000DF50D69239A414648462B46CDE900B69D
:105CE00063F025FD9DF8D008002800F0C48109F17B
:105CF0000201A7F1F8001F229DF8D18870F025F865
:105D0000A7F17800A7F1D80165F0A9FD0126B3E15C
:105D10000100200023990328D1F8202402D802286A
:105D200040F0E4842399002047F8480C3346D1F82A
:105D30002805D1F82C1547F8441C5146009002A8BC
:105D400000F5E358404665F0DFFB06A800F59650E5
:105D5000D0F8900900287FF4B4A906A808F108013A
:105D600000F5965A4FF48072DAF8944902A800F5CB
:105D7000985909F104006FF063FFA7F14800CAF8D1
:105D80003040DAF83031294600900AA800F517545F
:105D90004A4620460AF0DAF90BA866F033F87FF499
:105DA000D3AC0BA804F1080100F517504FF4826240
:105DB000056867F02BFC239B0DF50050D0F8004AD6
:105DC000D3F82C0506A901F59652D2F8A01DC2F809
:105DD0009059B1F5826F0844C3F82C0540F0DC837C
:105DE000239D3046D5F8281550F008F8034608469C
:105DF000D5F858156FF07042914200F02E81CDE930
:105E000000080022239800F5A66037F016FF00284E
:105E100040F023812399D1F858050130C1F8580585
:105E2000F2E306250026F0E10BA80DF6D85869F03C
:105E3000DCFA066865F060FF0DF5005041464FF44E
:105E40007F72D0F8EC490DF50050D0F8F05952A807
:105E500069F0D2FA0720CDF84C458DF848010DF5D0
:105E60000D60CDF8505507215396CDF8D09D37F0F1
:105E700047FC00287CF4F9A852A8011D0DF50D601F
:105E800001F066FAC0B20E287CF4EFA8DDF85015D8
:105E90000DF50D6001F0FFFAC0B20E287CF4E5A804
:105EA00007E30AA809F5847100F517540AA800F55C
:105EB0003D5220460AF0A1F867F083FC00F03082E2
:105EC00001283DF483AC0024012534E200218DF843
:105ED000B2274FF480720323ADF8B0270222CDF829
:105EE000A4071020CDF8A8278DF8B7370DF5F36279
:105EF000CDF8AC57CDF8A0072AA8CDF89C07802094
:105F0000ADF8981708F56A7100900AABA7F1480040
:105F100003F517531BF0D0FF57F8480C0E281CBF91
:105F200057F8480C0E2803D100210622FEF701BACB
:105F30000620C0B2FEF7F8B90020032207F8BE1C05
:105F40004FF4807107F8B92C27F8C01C0AAE06F58B
:105F500027560221102327F8D80C80200DF5D26295
:105F6000C6F8142FA7F1D802C6F80CAFC6F8103F38
:105F7000C6F8181FC6F81C4F009024A80AA901F5FE
:105F8000175329461BF098FF24980E281CBF24980D
:105F90000E2807D19DF8C800022806D19DF8C90037
:105FA000FEF7A2B80620FEF79FB800210722FEF7F1
:105FB000C0B923984FF480613246D0F8283590F864
:105FC0002C0500900F98CDE90101504641460AF09A
:105FD000E4FA2199054601287BF432AD55E202A886
:105FE0000DF5F36400F598514FF49A7265F03EFC9C
:105FF0000AA80F9900F517562A46304609F0F4FB17
:106000000BA865F0FFFE40F0658302A8311D00F586
:10601000E35540F2144265F07EFC0AA804F5827153
:1060200000F517542C2265F0F9FB9DF8C868A7F11C
:10603000480307F8486C0BA800F517500122416A85
:106040000120CDE90005204637F037FE0546204601
:1060500063F038FB002D00F0F5818325FBF7EFBCE2
:1060600002A800F5985018F0A9FD9025FBF7E7BCB1
:106070000226FEF785BB02269DF8D80D38B19DF8A3
:10608000DA1D022E05D29DF8D90D814204D10025DA
:1060900005E00120C1FA50F08DF8DA0D01250AA8BB
:1060A000A7F1F80100F517541F2265F0B7FB04F1C2
:1060B0001F00A7F1780165F0D2FB0DF50D602146B8
:1060C0003F226FF042FE002E40D0022E43D1012627
:1060D000002455B10DF6D8500DF5F361524608F085
:1060E0000FFEC0B207287EF48CAA3AAD42A91F2247
:1060F00065F08EFB2AA8294666F068F91CB14FFAB4
:1061000088F0FEF77EBA2EB1002000220023002185
:10611000FFF7EEBB0DF500501F2280F8E8850AA8B6
:1061200000F517542AA9601C6FF00FFE68F0D4F92F
:1061300002A90DF6D85001F5E35167F0EBFADDF84E
:10614000D80D80B1DDF8DC0DFEF75FBA4FF0060820
:1061500001240126BDE742A80DF50D6166F036F970
:1061600000240026B5E7DDF8E05D0024DDF8E40D4D
:106170000121DDF8E82DDDF8EC3DFFF7BABBDDF8D5
:106180009C07A7F14803DDF8A427DDF8A01707C393
:1061900006A800F59650082A026340F0A98220461E
:1061A00019F06EFA02A8A7F1D80800F5E351A7F19B
:1061B0004802404635F0E2FD0AA8002500F52750C8
:1061C0004C46C0F8305FD0F89866484618F008FD95
:1061D0000799484665F0CFFB239C082041462C22B6
:1061E000C4F82C0504F5A660C4F828656FF0ADFD71
:1061F0001A98042184F85C0504208DF848010DF5F7
:106200000D60CDF8D05D4FE101260AA94FF4806002
:10621000239B01F51751CDE90010A7F1F800414685
:1062200022461BF055FE0AA800F52750D0F8E80ECC
:106230000E2806D068F09DFFD0F8E80E0E287CF4FA
:1062400064AFA7F1D8000DF5D26166F0BFF8B9F1DF
:106250000E0F7FF4BFA942A8A7F1D80166F0B6F8E7
:10626000B6B100230024002500220021FEF764B807
:106270000BA800F51750D0E90149D0E9036B0DF5E3
:10628000AB6063F01FFA4FF0000A0125FDF78BBBEE
:106290000DF500501F2280F8E8550AA800F51754A4
:1062A00042A9601C6FF051FD68F016F902A90DF5C6
:1062B000D26001F5E35167F02DFADDF89006002871
:1062C00000F01A81DDF89406FEF79FB902A804F1E8
:1062D000080100F5985078226FF0B4FC0020CBF84C
:1062E0007C000AA8189900F5175036F0ADF8A0B94F
:1062F0000DF50D60DDF8E02C00F11001DBF87C00FD
:10630000009002A80AAB00F5985003F517552B46EC
:1063100063F010F8002800F0B5819920FDF758BA15
:10632000DBF8000004F1080123900DF6D85065F069
:1063300022FB0124002502A80DF6D85900F5E35AE6
:106340004FF480720AF1080049466FF079FC2398F7
:106350000AF10401C8F89409002DD8F83001C8F8F2
:106360009049D8F8942A009018BF00210AA800F597
:10637000175502A800F59853284619F015F8484615
:106380002946202220246FF0E0FC01209DF8E02A1D
:106390008DE81102012303940AA80AA900F51750F9
:1063A00001F53D5100F0B6FD67F00BFA7DF40EAA41
:1063B0000DF580510020DBE90189C1F8D8020DF606
:1063C000D850DBE90354002137F09AF9A0BB0DF651
:1063D000D8500090404649462A4623462AF060FBA2
:1063E000C0B20E2828D10AA80DF6D85100F51750D2
:1063F00040F20452841C65F011FA02A8214600F50F
:10640000E35040F20452851C65F002FA0AA82946BE
:1064100000F53D5040F20452841C65F0FFF902A8DB
:10642000214600F5985040F20452851C65F0F0F9C1
:10643000301D2946FDF7A8BE952070600120306010
:10644000FEF7E7B8DDF8983806A800F596500096F4
:106450000DF5F362D0F8A00D02A901F5E351CDE9E5
:106460000110504641460AF098F8054601287BF491
:10647000E6AA9DF8C8380DF5F3625046414609F08A
:1064800011FF054601287BF4DAAA52A80DF6D8516F
:10649000083067F0ADF8052005218DF8480100208F
:1064A000CDF8D00D0DF50D6037F02AF900287BF4FA
:1064B000DCAD0AA80DF50D6100F5175040F204524D
:1064C000841C65F0ABF902A8214600F5E35040F2C8
:1064D0000452851C65F09CF902A8294600F59850E5
:1064E00040F20452841C65F099F90DF6D850FBF780
:1064F000DDBD0325FFF76EB80DF5D3650021012240
:10650000FEF7E9BE002017900020119052A802A9C2
:10651000EF2201F5E35145EA08456FF091FB0DF5D7
:10652000AB600DF6D85168F08EFEBAE81E000DF58E
:10653000D2601EC0BAF8001001809AF80210817073
:1065400013981F99000A179A199B40EA01600E9050
:106550001898CDF87CB04FEA1328C0B21C9640EAD8
:1065600002201890080A310A0C9140EA03601D9934
:106570000F90090A11980D911A99000240EA1260D1
:106580001790090A0B9E0A9100211191DDF820B0A5
:10659000FCF767BB65F0C2F90AA8314600F517554C
:1065A0004FF49C7265F0B7F92399072081F85C05D8
:1065B0000DF5005090F81C67072E00F0A880F01E23
:1065C000C0B2032802D8022840F0A18005F58471EA
:1065D0000DF5F3652C2265F01BF90DF50050DDF883
:1065E000C017012280F8E8650120CDE900080AA85B
:1065F00000F51753284637F020FB0646284663F07F
:1066000061F8002E7FF429AD06A800F59650D0F869
:10661000A02D0AA800F5175502A800F5E35166F071
:1066200013F902A8444A00F5985629461923304622
:1066300018F040FD204664F0A7FF0D4600287BF4CB
:10664000FEA906A8311D00F596580DF6D8504FF456
:106650007F72D8F830906FF0F3FAD8F8306452AC0B
:1066600004F108000DF6D85166F0C2FF0020CDF805
:106670004C65CDF850550434CDF84C91ADF8480137
:10668000FEF77FBCDBF87C0001214A460123CDE9FF
:106690000010CDE902500AA90DF6D85001F53D5180
:1066A00000F038FCDDF8D80D18B1DDF8DC0DFDF791
:1066B0008FB80DF580510020DDF8E08DDDF8E49D08
:1066C000DDF8E85DDDF8EC4DC1F8D8020DF6D850E4
:1066D000012179E61548A7F1F802164BFDF7BCBF7A
:1066E0001248A7F1F802124BFDF7B6BF46F0CDFBFA
:1066F0000BA9002001F5175141F8040C02A80AAAC1
:106700000E4900F5985002F5175257F0C3FC0AA83D
:1067100000F5175018F064FA034865F0F1FC00BF6B
:1067200000810700D0800700B49D07005CB107001E
:106730008878070058780700147107007C66070006
:1067400000207047E0B502AF0022CDE90012694693
:1067500008224AF09FF80E21002818BF022108469F
:106760008CBDD4D4B0B502AF88B000200C460190E7
:10677000042105480022009003AD2A2366F038FA70
:1067800065F0C2F808B0B0BD84910700B0B502AFA3
:1067900094B090E82C000C4665F092FF0C48092359
:1067A00066F09BFC06A80D900A480C9005A80B907B
:1067B00009480A9003A80990032009A9CDE900100F
:1067C0000FAD032166F014FA65F09EF814B0B0BD69
:1067D0009C640700846407006C640700B0B502AFD6
:1067E00094B0D0E900230C468068412103900E4804
:1067F00067F039FD0D4866F060FE06A80D900C4864
:106800000C9005A80B900B480A9003A80990032050
:1068100009A9CDE900100FAD032166F0E9F965F093
:1068200073F814B0B0BD00BFA30000429C64070021
:10683000B46407006C640700B0B502AF8CB0008888
:106840000C4627F82A0C41210748002266F03AFC42
:1068500005A9CDE9001007AD0421492366F0C8F968
:1068600065F052F80CB0B0BDCC640700B0B502AF13
:106870008AB00C460B2006490B2267F08AF905AD59
:10688000042365F013FB65F03FF80AB0B0BD00BF0C
:1068900084910700B0B502AF8EB00C46412107F8D5
:1068A000321C002127F8341C00220188252368F0BF
:1068B0009BF90A48089004A8079009480690A7F198
:1068C00036000590022005A9CDE9001009AD02218E
:1068D00066F08EF965F018F80EB0B0BDE4640700FC
:1068E000CC640700B0B502AF98B0D0F80A200C46CF
:1068F00066F0F7FD01D066F0C2FD828827F8521CD1
:1069000000210AB166F0B1FD27F84A1C017A11B1E5
:1069100067F02BFC00E0002007F8410CA7F14A01CA
:106920000A4868F0E9FA0A4868F077FB09480C90D1
:1069300003A80B9004200BA9CDE9001013AD022190
:1069400066F056F964F0E0FF18B0B0BD14650700BA
:10695000FC6407006C640700B0B502AF94B090E827
:106960002C000C4665F057F80C48382366F0B5FB50
:1069700006A80D900A480C9005A80B9009480A90AB
:1069800003A80990032009A9CDE900100FAD032148
:1069900066F02EF964F0B8FF14B0B0BD9C64070037
:1069A0002C6507006C640700B0B502AF94B090E8A6
:1069B0002C000C4665F02FF80C48372366F08DFB51
:1069C00006A80D900A480C9005A80B9009480A905B
:1069D00003A80990032009A9CDE900100FAD0321F8
:1069E00066F006F964F090FF14B0B0BD9C64070037
:1069F0002C6507006C640700F0B503AF4DF8048DFB
:106A0000A4B005464068884618B165F052FEA968F2
:106A1000069129880590002011B166F01CFD00E068
:106A2000002167F0AAFBD5E903100A9195F822101E
:106A3000002918BF01F184410C9118B168F0BFF82A
:106A400069690E910D90A86918B168F0AAF8E96912
:106A5000119110906FF07E061E4868F0BDFB1E4835
:106A60001A900CA819901D4818900AA817901C4855
:106A7000169008A815901B48149005A8139095F837
:106A8000200095F82110002808BF012631B10B2005
:106A9000314667F019F804460E4600E00B2495F8DD
:106AA000230061280EBF012001215DF02BFE002193
:106AB000062213AB8DE80B003346CDE903211FAD51
:106AC0008021224665F0F2F967F009FE24B05DF8F6
:106AD000048BF0BD746507005C6507006C640700FB
