:10100000A09D02200111000035020500E99B0700A8
:10101000350205003502050035020500000000001C
:101020000000000000000000000000003502050084
:1010300035020500000000003502050035020500FC
:101040007D7E0400350205003502050035020500ED
:1010500035020500350205004D7E0400350205000D
:1010600035020500350205003502050081800400C7
:101070003502050035020500350205003502050080
:101080004D7E0400350205003502050035020500DD
:101090002D7B04003502050035020500097F0400A0
:1010A000B17E040035020500350205003502050059
:1010B00035020500350205000000000000000000B8
:1010C0003502050035020500350205003502050030
:1010D0003502050035020500350205005D7E04007D
:1010E000350205003502050035020500000000004C
:1010F0000000000035020500000000003502050078
:1011000080B56F464FF099F84FF070F84FF07CF8CB
:101110000348016841F4700101604FF087F800BF97
:1011200088ED00E080B56F464A681AB9096840F05A
:1011300097FB80BD00234B60096826F0DDFD80BD74
:1011400080B56F46002080BD80B56F46002080BD11
:1011500080B56F46D0F800150A0A042A84BF022021
:1011600080BD00224254D0F800150131C0F80015AE
:101170000E2080BD80B56F46D0F800190A0A082AF3
:1011800084BF022080BD00226EF089BCF0B503AFA1
:101190004DF804BD70F092FC40F07FF808B10220D9
:1011A00008E06EF0ECFC3FF0DEFE01460E20002968
:1011B00018BF02206DF05BBFF0B503AF4DF804BD62
:1011C00070F07CFC40F04FF808B1022008E06EF0AF
:1011D000D6FC54F0FDF801460E20002918BF02206D
:1011E0006DF045BFF0B503AF4DF804BD70F066FC7F
:1011F00040F046F808B1022008E06EF0C0FC3FF075
:101200003BFF01460E20002918BF02206DF02FBFC2
:10121000F0B503AF4DF804BD8EB001AC01462046D9
:101220002AF01AFF09A8214635F079FE201D0A9DF3
:101230000C9E35F03DFEA919084404300EB05DF84F
:1012400004BBF0BDF0B503AF2DE9000FADF5725D45
:1012500081B004AC80460DF5376004F51E5E04AC29
:1012600000F1080B06A804F5A65C00F5F15906A8E4
:1012700000F5A656CCB206F10800159009F1880ACF
:10128000B968D0B2DFE814F0060000019100B400A4
:101290001A00C600100640F0F78004A89B466EF0C6
:1012A0004EF80EF0D1FE0DF5005090F8D0680C2EDF
:1012B00040F0DE816DF0B7FF03F0ADB8002800F01C
:1012C0004681032800F02381072840F0DD80DFF805
:1012D0003C5FD5F82803032800F04081CDF850800A
:1012E00004A800F523589A46B14640460DF0FEFB8F
:1012F00004A800F51E50D0E9504BD0F8486184F0A6
:10130000060050EA0B0000F09D8109F10C0008F185
:101310000C0140F23C5278F0D7F904A84FF48272E5
:1013200000F5A650C0E9024B0AF5487406610DF5B8
:10133000095621466DF0ADFFDFF8D41E6FF02DFB8E
:10134000DFF8D01E30460B2258F0A6F902A86FF045
:1013500061FF04A8214600F52358404639F054F9AE
:1013600004A86CF0EFFE19D004A808F1080100F5FC
:1013700011506CF0D5FE0CA80DF5095100F54A5638
:101380006DF0B3FB04A8314600F5235B584639F0F5
:101390003BF904A86CF0D6FE41F08380D1F844B14B
:1013A00014990120C1E9000B72E04FF0FF3050FAB0
:1013B00082F0042868D8DFE810F005003301F80057
:1013C00067004A0104A8994600F52355F3462846CC
:1013D0000EF0B0FA0DF50050DBF8406190F8E8AC83
:1013E000BAF1040F40F018820120C8E900064FE06E
:1013F000042849D104A8F34600F5235948460EF0C5
:1014000038FADBE95065022E40F0AB800120C8E9D4
:1014100000053DE004283FD0062835D1DFF8EC5D1B
:10142000D5F82803032800F0998004A8664600F543
:10143000235BF14658460EF0CEFB0DF5005090F8B8
:10144000D008012800F010810DF5005090F8D10867
:10145000012840F09A8406A8802100F5A650612258
:1014600078F07DF9002005F54A71C9F8200F0DF5D7
:10147000C8601FF051FABDF84006002800F00B8745
:10148000DDF8440602F0C7BF01209621C8E900013B
:101490000DF5725D6CF052BEDFF870BDDBF828030D
:1014A00003285BD004A8F1466DF049FF0EF0E1F986
:1014B000D9E95064022E01F0CB800CA8C24600F599
:1014C0004A5805F1080108F108006CF0CBFDF0075F
:1014D000C9F8206BC9F8244B00F0BB84DBE9F001AC
:1014E00008F10402D9F8243C6BF0D6FDC3B296246F
:1014F000102BD04601F0AC80DFF81C1D0320032226
:1015000020F0B8FAC00718BF0C4601F0A1B8DFF808
:10151000FCBCDBF82803032820D0CDF8508004A8B9
:1015200000F523581E4640460EF073FB04A800F554
:101530001E50D0F840510DF5005090F8F93D042BA5
:1015400040F02D8214990120C1E90005A0E7DFF8E1
:10155000BC0CD0F82803032840F0D38001200521DB
:1015600094E7CDF850800CA800F54A5809F108011D
:1015700008F108006CF076FDF007CBF8206BCBF893
:10158000245B00F0D280DBF8244C04A808F10405A9
:1015900000F523502946224658F0CCF8DBF84001EC
:1015A000002800F075838B20B1E3CDF8508004A8AB
:1015B00000F5235A9946754650460EF02AFB0DF564
:1015C0000050D5F8406190F8F98DB8F1040F39D08A
:1015D0000DF5C8600AF10401043040F2255278F09C
:1015E00073F80DF50050CDF840668DF8698B09F55C
:1015F0004876B0F8FE0DADF86E0B3146D5F86A06A8
:10160000CDF86A0B04A800F523546EF079F8D5F8EC
:101610004001012840F0AF82D5F8444100F083BD7D
:10162000CDF8508004A800F52355994628460CF0C3
:1016300053FC04A800F51E50D0E95086B8F1090FFC
:1016400040F00C8114990120C1E9000620E704A8AC
:10165000F14600F523500EF04BF90DF5005090F8CF
:10166000D008012840F03381D9F8440102F0D3BEFC
:101670000DF500500DF54051CDF8508070F05FF938
:101680000DF500500DF54051B0F8D108A1F8B102A8
:1016900004A800F51E5405F10801D4F844810CA8F3
:1016A00000F54A5000F1080A504677F049FD0DF563
:1016B00040500BF54875C4F8248B80F8B0620D20BB
:1016C000DBF820242946009002A8DFF8503B00F503
:1016D0000D5057F0C9FFDFF8348B98F8200301282C
:1016E00040F01C8145A802A901F50D516CF0A9FB41
:1016F00004A8DFF8281B00F511500D2257F038FE22
:1017000020E11593B246CDF8508004A800F5235887
:1017100040460EF099FC0DF5005090F8D0480C2C86
:1017200040F0A2816DF07FFDF1E240F201200DF565
:101730003766ADF8780B0320CDF8740B0021DFF885
:10174000CC0A8DF87A1BCDF8701BD0F8D8933046B0
:1017500042F02AF85FFA80FABAF1030F00F0F4833E
:10176000504638F02DF904460DF5005088468D6A34
:1017700080F8D4A80222DFF8A80A00902046CBF80F
:10178000409104ABDFF89C1A03F52353A847C00728
:1017900040F0BC82BAF1020FD9D10DF58051012081
:1017A0003546022281F8D80404A800F5A65A6FF045
:1017B0000400CAF80C0006A800F5A651CBF84011A9
:1017C000A7F16001CBF84411DFF85C1ADFF85C0A7E
:1017D000CBF84811D8F85060009004ABDFF8441AF9
:1017E00003F523532046B047C00740F08F82DAF854
:1017F0000800C10740F08A822E46C005A7D5D8F858
:101800005C500020DFF8281A1D220090204601239A
:10181000A847C0079BD079E20DF53760291D043039
:101820006EF0BAFFDBF85C15DBF85905CDF88C1FBC
:1018300009F54871CDF8890F8DF888AFCDF8706B38
:1018400004A800F523546DF05BFFDBF8400101288C
:1018500040F0F281DBF8444100F0FABE05F10801E6
:1018600058464FF4A16277F06BFCCDF8746BCDF85D
:10187000708B04A86EF023F938F008FE04A86CF011
:1018800061FC1DD004A804F1080100F51A506DF0A8
:1018900093FC0CA809F5487600F54A544FF482727F
:1018A00031464D466DF058FB04A8214600F5235AF9
:1018B000504638F0A9FE04A86CF044FC40F0578470
:1018C000D1F84441149A0120C2E90004E0E50DF585
:1018D0000050C34690F8D10838F072F8CD6806463B
:1018E0000C46A8476169804630468847C00710D13A
:1018F0008A4621693046884715903046A847002817
:1019000004F0D380A169054630468847C00700F03F
:10191000A78401208A21CBE90001B9E545A802A9E5
:1019200001F50D5138F09EFD04A8DFF8F01800F520
:1019300023560D226EF02CFA04A8314600F5115002
:1019400038F090FD04A86FF0A7F938F09FFD04A8C7
:101950006CF0F8FB1CD006A806F1080100F5A650B3
:101960006DF02AFC04A8294600F51A506CF069FABB
:101970000DF5C86629466DF0B8F804A831466DF03B
:10198000DEFC38F041FE04A86CF0DCFB40F0C581C1
:10199000D1F84401149E0121C6E9001078E50CA895
:1019A00008F1040100F54A5040F2255204301C466B
:1019B00077F08AFE0DF500500DF5405106F5487898
:1019C0004FF48272B0F8FE0DA1F8DE0704A800F50E
:1019D0001E500DF540511594D0F86A06C1F8DA078B
:1019E0000DF54050414680F8D94704A800F51E5037
:1019F000C0F8205B04A800F511556DF002FBDFF87C
:101A0000101828460A2257F047FEDFF80818284623
:101A10000B2257F041FE04A841466DF090FC38F0CF
:101A2000F3FD04A86CF08EFB17D005F108010DF54D
:101A3000C8606CF075FB04A80DF5376400F5115112
:101A40006CF02CFB04A821466DF079FC38F0DCFD2D
:101A500004A86CF077FB40F08F84D1F844611498AF
:101A60000121C0E9001613E50DF500500DF54051B8
:101A70006FF065FF0DF500500DF54051B0F8D1083D
:101A8000A1F8B10204A800F51E5608F10801D6F825
:101A900044510CA800F54A5B0BF10800109077F058
:101AA0004FFB159B0DF54050C6F8245BDFF85C57E3
:101AB00003F5487880F8B042D3F82004D5E9F01255
:101AC000009003F5AC6043466BF0C0FBCDE911100C
:101AD00004A800F51A5641464FF48272CDF84C80A6
:101AE0006DF0D7FBDFF828176EF057FFDFF84417CB
:101AF0003046052257F0D0FD0AF1040031466CF063
:101B0000A0F904A905F5757001F5A6510BF1040AB9
:101B10008860DFE814F00C0015088D0676070306D0
:101B20007508AE08CE07D7081206C708E80506A84C
:101B30000DF537646CF03AFD0DF540502E4690F8E7
:101B4000B11204A86DF0FBFB68F05EF996F8D5338E
:101B500004A800F51E5620462946D6F8402205F076
:101B600065FB31464FF0000C0222002300260025C1
:101B7000149C02F071BB06A804F1080100F5F150B5
:101B80006CF0CEFA04A8314600F51A5038F06AFC21
:101B9000B8F1030F40F0DA819DF8580B012840F0AE
:101BA000C1820DF5C8609DF859BBDDF8503700F1D2
:101BB000100204A80DF5376600F51A51304638F0CA
:101BC0006FF8DDF8700BDDF8744B012800F0AB8284
:101BD00006A806F1080800F5A65A4FF480720AF12B
:101BE0000400414677F070FD04A8594600F5A65060
:101BF00052468460D0F8083104A86FF04DF837F0F1
:101C0000B7FED5E95004C00740F08D820CA806F15C
:101C1000080100F54A5A40F678120AF1040077F0FC
:101C200053FD0DF54050C5F8204BD0F8286C1C2E04
:101C300082F049818C2476E206A86FF031FE6CF0C8
:101C40006FFABAF1030F40F0758204A80DF53766FC
:101C500000F5235506A800F5A6523146284611F096
:101C6000A5FDDBE95004012800F0F2840DF5C86001
:101C700005F1080104306CF0F5F9DDF8780CCDF8C9
:101C80004046022840F01B850026594601F042BA22
:101C9000009404A800F52358DFF8881502222B468B
:101CA000404657F0E1FC002040F201218DF87A0B0C
:101CB0000DF53769CDF8700BDFF85005ADF8781BDE
:101CC0000321CDF8741BD0F8D85306A8DFF850A52F
:101CD00000F5A656484641F067FDC4B2032C00F05B
:101CE000D482204637F06CFE0DF58053DBF840229D
:101CF00083F8DC4404AB8C6A03F5A6534146CDF867
:101D000000A09D603346A047C007E3D00620149A88
:101D10000121C2E90010FFF7BBBB0CA80BF28254F3
:101D200000F54A5005F1080100F1040B0DF537608C
:101D30006CF0F6F90DF5405090F8B002DFE810F0C5
:101D40000C003E09B708D80870085E09800912091E
:101D5000BA099E089F09F6070DF5405090F8B11298
:101D600004A86DF0ACFE68F04FF898F8213304A891
:101D700000F51E502146D0F8402245A805F056FA3D
:101D800004460020022102F07BB80CA8802100F557
:101D90004A544FF0800A6DF05BFADFF89C0405F5B9
:101DA0006A71CDE9014A0122009006A8DFF88C345F
:101DB00000F5A65029F0EAFCB068012802F02A8359
:101DC000D6E903120DF5C860344665F0ABF8BDF8EE
:101DD0004006C00742F01E83DDF84256DDF846A6F5
:101DE00006A80CAADFF858146DF006F8A0680E28B3
:101DF00042F010830DF58050DFF84814B0F8DC4451
:101E000006A80CAA6CF0F8FFB0680E2842F0028316
:101E10000DF58050CDF85080DFF82C14B0F8DC843C
:101E200006A80CAA6CF0E8FFB0680E2842F0F08219
:101E3000280E40EA0A22280C40EA0A430DF5805099
:101E40004FEA1A454FEA1A260021B0F8DC0401F0E7
:101E5000B7BE04A8802100F523546122204677F004
:101E60007EFC00200DF537618DF8840B2246CDF8FD
:101E7000780B8023D148CDF8800B0420CDF8740B6B
:101E80000DF5C860F14ECDF8706B29F067FADDF8FA
:101E900040060E2807D006240C2804BF9DF84406EF
:101EA0001D2840F0F08104A80DF5376900F523588E
:101EB000E74948468023424629F0E2F99DF8700B35
:101EC000002840F0DF81DDF8715B8021DDF8754B83
:101ED0000420CDF8740BCDF8706B2A46CDE900983C
:101EE0002346029106A800F5A65029F08BFB04A812
:101EF00000F5A656B0680E2840F0C481D5480BF511
:101F00006A71CDF8740B0120CDF8700B8020CDE9FB
:101F100001800DF53762D048CDF87C4BCDF8785B69
:101F2000009006A8CD4B00F5A65029F01BFCB06828
:101F30000E2840F0A7810BF54A701EF029FD0446DB
:101F4000012808BF96249EE100219FE19DF8680BBF
:101F5000012840F0E7800DF5CA634FF000090FCB70
:101F600002ACCDF800900FC404A800F5235606A8D3
:101F7000012200F5F1516DF06EFD0DF50050B0F845
:101F8000D0480F2C3FF448AB0DF500506DF0D3FC5A
:101F9000D5F844A1B0F8D20815906EF089F81598DC
:101FA0000DF53761CDF874ABADF8720BADF8704B31
:101FB00006A800F5A654204667F002FE04A8211DDD
:101FC00000F5A650826804A800F51E50C0F8B89A23
:101FD00004A800F523503FF01AF8002843F0548578
:101FE0000CA840F67C1200F54A5904A800F52351CC
:101FF0006DF099FD0DF54050D0F8286C484606F17B
:102000000C013EF07FFF002843F03E850DF5405067
:10201000D0F8280CB042C3F03985841B06A809EB20
:10202000060A00F5F1502246514631F0E5FE0C2C2F
:1020300043F02A850DF5C8630FCB02AC6EF088F92A
:1020400004A800F5235406A86CF006FA0DF500501C
:102050006EF016FE3FF4E0AA06A86FF021FC6CF0CB
:102060007FFED5F8A00A202843F00E8504A8202280
:1020700000F5115406A800F5A6516CF018FF04A84D
:10208000214600F5235B584610F020FCDDF8640B78
:102090005946CDE900090DF5C860029645AC00F53A
:1020A00092735246204625F0DDF89DF81401012870
:1020B00003F0EA8402A8611C00F50D5510226CF0B3
:1020C000EDFE0CA8294600F54A54102220463EF0A9
:1020D0009EFF002843F0D8840DF54050DDF86027BE
:1020E0004346D0F8280CCDE900400DF5C86000F15A
:1020F000200104A800F51A5005F072F8044604A85F
:1021000000F5235025F0B1FB012C0CD100254FF038
:10211000020B002614985A4633468DE810030395A7
:1021200001F0B1BD7024DDF850A00120CAE900041F
:10213000FFF7AEB90DF53763CDF850800FCB02AC89
:102140000FC400200122009004A800F5235406A823
:1021500000F5A6510F236DF015FE0DF50050B0F8F7
:10216000D0680F2E40F04E82DBF844416EE20DF550
:1021700037600AF108010430129006A84FF410727B
:1021800000F5F15005F5856576F0DAFF04A83146D3
:1021900000F523544FF4827213966CF0DDFE02A812
:1021A0006FF038F8DFE818F00C00500942087B089F
:1021B00002086A09C5090609DC0900BF7FFF02059C
:1021C00028469DF8804D25F097FC0DF5376029468F
:1021D00000F5867508464FF482726DF097FA042078
:1021E000012689F85C050020CDE900602A46D9F86F
:1021F00020142346139889F82C4511F05CFD012822
:1022000003F004830446FFF75DBB00BF109C03206E
:10221000EDA4070025A407009CB707005FA20700F4
:10222000ECA6070087A2070008A7070040BA07002E
:1022300012A30700CAA407004D600000F96E060053
:10224000049C070092DB070004A70700149E070008
:10225000049E0700E4BB07008B88000011120000F9
:10226000159A012009F5A073C9F85011B2FBF5F2D7
:1022700083E8050504A800F5235158460AF0A3FA9F
:10228000FFF706B90624D046E2E1012114980AF0CE
:102290008EF9FFF7FDB8DDF84616DDF842060A0CA8
:1022A0008DF842168DF844260A0A010E000C8DF8AE
:1022B000432605228DF841160DF5C8618DF84006BC
:1022C0000CA800F54A5053F083F806AA5FF8901066
:1022D0000DF5C8606EF0F4F9DDF840060E2842F006
:1022E0009980BDF844060DF5C8616DF092FE0CA80A
:1022F00000F54A5053F06CF806AA5FF8B4100DF5DB
:10230000C8606EF0DDF9DDF840060E2842F08280EC
:10231000BDF844060DF5C8616DF07BFE0CA800F514
:102320004A55284653F054F806AA5FF8E8100DF510
:10233000C8606EF0C5F9DDF840060E2842F06A80EC
:10234000BDF844060DF5C8616DF063FE284653F0F4
:102350003FF801210020702901F20A84D9F8203FBA
:102360000A460131B0EB932FF5D1EA54D9F8202F6A
:102370000132C9F8202FEEE7284600F1080106A82F
:102380004FF4107200F5A65006F5AC6576F0D8FE55
:1023900004A8414600F51A5038F064F8DBE9F01261
:1023A0004346D6F82004009028466AF04FFF15985F
:1023B0000D46032840F0518104A80DF5376400F55F
:1023C0001E590DF5405090F8C907D9F8303C0090DF
:1023D0000CA800F54A5804A800F51A5108F110029B
:1023E000204604F0DFFEDDF8700BDDF8746B00288A
:1023F0007FF435AB04A8139500F5235004F10805CC
:1024000014304FF480626DF081F90DF54050414673
:10241000D9F824AB01F58A7190F8C887D9F8200B58
:102420001590D9F828BBD9F82C4B04A800F52350F7
:1024300000F214402BF01CF80DF540510020C9F8B3
:10244000D8090DF5C86281F86C810DF54051C9E9D4
:10245000534681F86D0109F5A071159881E8010CCA
:102460000DF540500DF5405190F8CA0781F86E0106
:102470001398009006A804A900F5A6530DF537603F
:1024800001F523511EF0C4FEDDF8702BDDF8743B1E
:1024900082F00200184341F0ED83DDF8786BFFF71E
:1024A000DEBA0DF5C8600BF108012830139004A8BE
:1024B0004FF4107200F51A5B0AF5AC68584676F0D6
:1024C0003FFED5E9F0122346DAF82004009040469A
:1024D0006AF0BCFE04A8884600F5A6524E469568F0
:1024E000DFE815F00600FF097309DB09CB08FA0ADB
:1024F00004A8444600F5235806F1180191464046C9
:102500002AF0B6FF0DF1100E15990EF51E5AD9F8E6
:10251000A4C4D1E90023DAF840E50DF1100AD1E9AD
:1025200002010AF5115A0A9406F21C44D9F82895BA
:1025300006F59466CDE908AB8DE84302CDE9044C7D
:10254000CDE9068E0CA86EF0C0FD0DF5405090F858
:10255000B002002841F02D820DF5405004F1080131
:1025600012950DF5376490F8B30229228DF8160103
:102570000DF540506FF037F904A800F51E5A2046BB
:10258000DAF8246B76F07AFD45AD2146E81D6FF050
:1025900027F904F1190134AC10226CF088FC0DF518
:1025A000805000210D23CDF8176190F8FC292020E0
:1025B000CDE900310023CDE902500CA804A900F5B3
:1025C0004A5001F5115104F091F8DAF8200B012876
:1025D00001F05F81DAF8288B40F20442DAF82CBB74
:1025E000DAF8309BDAF8345B06A804A900F5F1505C
:1025F00001F5235177F068F824A894E84E004EC006
:1026000001F0C0BE0DF50050DBF8445104F10801A3
:102610004FF41662B0F8D2880CA800F54A5000F1C9
:1026200008096DF080FA04A8822400F51E50012EDE
:10263000C0F8245B0DF54050A0F8B2820DF5405073
:10264000A0F8B06208BF202D00F05F83DDF8508055
:102650000120C8E90004FEF71BBF139504A800F58C
:102660001E58D8F8280B1290D8F82C0B1190D8F8D7
:10267000300B1090D8F8340B0F90D8F8380B0E9020
:10268000D8F83C0B0D900DF54050D8F8206B90F821
:10269000D8070C900DF54050D8F824BBD0F8D427BB
:1026A0000CA800F54A5445AD04F592716DF0B1F9EE
:1026B0004598012840F055830626FFF7D0B904A8B5
:1026C00006F5847100F5235506A800F5A6522846A4
:1026D00011F06CF8DBF840015946022840F00C85F7
:1026E000002600F017BD04A800F5235406A86BF0DF
:1026F0005DFF6EF0A9FC149C012843F0008195F861
:10270000D51304A800F523501DF018FCC0B207280B
:1027100042F0A1864FF0000C0D22F1E204A86BF00C
:102720001CFA04A800F51E53D3F84001002800F05D
:102730007587D3F8440103F0E1B806A90DF5C86028
:102740006DF0F1F804A813996DF0B9F91DF0D3FB01
:1027500004A86BF0BBFE002840F0A08204F1080141
:102760000DF537606BF0DCFC0DF5405095F8D53376
:102770000DF5C86290F8B11204A800F52359484637
:102780001DF0EEFD0DF500500DF500516DF005FE4C
:10279000022801F051850DF50050AB464FF48061E1
:1027A0004FF4806A90F8D4580DF50050B0F8D24834
:1027B0006CF0A0FF0DF58A780DF53761404625F0E5
:1027C000D5FD0DF50051262044EA054281F8660446
:1027D0000DF50051002046EA022281F8640404ABA2
:1027E00003F5A654CC49CDE9019AC4F8901F0DF524
:1027F0000051C4F8888FA1F854040DF50051C4F8B5
:102800008C2FA1F850040BF56A71C448009002A8FF
:1028100004AAC34B00F50D5002F5115228F0B6FF83
:10282000D4F8780E012841F0F587149C02F012B814
:1028300006A806A900F5F1506DF075F895F8D413C7
:102840000DF5C8601DF05EFB04A8DDF84C806EF04D
:1028500023FA41461DF04FFB04A86BF037FE002819
:1028600040F01C820DF5376B06F108016CF008FF93
:102870000DF5405095F8D53390F8381306A800F5BB
:10288000F15230461DF06CFD0DF50050B11C1422C4
:1028900090F8D0480DF5005090F8D15804A800F5F4
:1028A000115076F0EBFB022C00F0DD8104A90DF550
:1028B000095909F1020001F511516EF03CFA0DF5CC
:1028C00000500DF5C863414680F841520DF50050A7
:1028D00080F840426CF0EDFD04A86CF030FD1DF076
:1028E000A1FE0DF500500DF5005190F8D00891F8BB
:1028F000D148012800F07E8145A8A91C01306CF068
:10290000BFFB0DF500508DF8144190F840020128EE
:1029100042F0698304A84FF4806100F51E50D0F89E
:10292000A44B04A800F5A656D6F8718D04A800F5AE
:1029300023556CF0A2FB0DF50050CDE900A4A7F1E2
:10294000600409F1060190F8453245AA204669F075
:10295000F7FBC6F8788E04A800F5115602A800F51A
:102960000D512A4630464FF48063A94628F088FC72
:102970000DF5005090F8500401283FD004A8CDE98F
:10298000004B00F5A650D0F881AFD0F8855F34A891
:1029900052462B4629F050F834980E282ED19DF837
:1029A000D400012843F011804FEA186140466AF0D4
:1029B0008FFB04A9CDE9006901F5A6520DF5005180
:1029C0002B46C2F88A0F002081F858045549C2F8F6
:1029D000841F0DF500515246A1F850044FF4806059
:1029E000029004A800F54A5028F0F2FD04A800F572
:1029F0001E50D0F8000B012842F0EE87062002F0AE
:102A00007ABF04A86BF0A9F804A86BF05FFD00285A
:102A100040F044810DF5376B04F108016CF030FE95
:102A20005FF818480DF5C86094F8D4131DF06AFAE1
:102A300004A800F5235606A800F5A65130461DF05F
:102A40004FFA94F8D5533046374911222B4604F0FB
:102A5000EDFB002801F0A483009506A800F5F154D1
:102A600004A8314A00F523512046112304F07CFBD1
:102A700004A800F5A655D5F86809012801F0D0840E
:102A80000DF58050611D0F2290F83C6E04A800F5F2
:102A900011546CF00CFAD5F87C09102841F0C08470
:102AA00045A80ECC0EC021880180A178817001F06C
:102AB000A2BB04A8A94600F5235506A86EF019FB91
:102AC0000DF5405099F8D5330DF537642A4690F846
:102AD000B11220461DF044FC9DF8705B9DF8716BAF
:102AE000022D02F0B6840DF1B008A11C08F102001D
:102AF0006EF021F98DF8B1608DF8B05099F8D523BA
:102B000004A800F5235140461DF03EFDC10701F029
:102B10009983060A02F09DBCF0000012A58900000E
:102B2000F9660600010020009CA20700C8C2070049
:102B300060C107001CA70700B8BA0700109C03205B
:102B400004A86BF00AF804A86BF0C0FC002840F061
:102B5000A5800DF5376B04F108016CF091FD95F837
:102B6000D4130DF5C8601DF0CDF90DF5405090F867
:102B7000386304A800F5235406A86BF017FD95F8F8
:102B8000D53306A800F5F1553146224628461DF0FA
:102B9000E7FB0DF5805090F8384E0DF5805090F819
:102BA000396E022C01F0488304A8D14600F5115A71
:102BB000A91C0AF102006EF0BEF80DF500500DF5EB
:102BC000C863414680F851640DF5005080F85044C8
:102BD0006CF06FFC04A86EF05FF81DF023FD0DF59E
:102BE00000500DF5005190F8D00891F8D148012817
:102BF00041F089865FF8CC0050F8240002F07EBED8
:102C000004A86AF0AAFF04A86BF060FC002845D174
:102C100004F108010DF537644FF410726CF00CFFED
:102C200095F8D41306A800F5F15630461DF06AF960
:102C300006A90DF5C8606CF076FE1598414633463E
:102C4000D0F820241298CDE9000404A86CF037FFD6
:102C50001DF0E8FC0DF500500DF500516DF0A2FBE4
:102C6000012841F0B2835FF83C0150F8250002F0E2
:102C700045BE95F8D41306A800F5F1501DF042F9B1
:102C800006A90DF5C8606CF04EFE04A86AF065FF59
:102C900004A86BF01BFC002800F09186D1F84401D9
:102CA00002F02CBE04A800F5235406A86BF07EFCAD
:102CB0006EF0CAF9149C012842F021864FF0000CF6
:102CC0000C221DE004A800F5235406A86BF06EFC4E
:102CD00095F8D51320461DF031F9C0B2072842F00F
:102CE0000A86119B0220012100221EF0C3FE149CC3
:102CF00002460846D10742F002864FF0000C0A2235
:102D000000230026002501F0A4BA0DF540504946E5
:102D1000D0F8102C04A86CF0D2FE68F059FDDBF856
:102D20004001C00700F07A878A248FE404A84FF49A
:102D3000807100F523546CF08BFA98F8213304A9C4
:102D400001F51E5101200122C1F8400245A821468B
:102D500004F0DCF9C00740F0268200200D2101F0CC
:102D60008FB8469805F108010B9009F1AC006DF0A1
:102D700090F912980DF58051CAF808000DF5C86257
:102D80001198CAF80C001098CAF810000F98CAF8E9
:102D900014000E98CAF818000D98CAF81C000C9878
:102DA000CAE9006B81F8640F04A800F5A6510B98DE
:102DB000C1F8100A0020C1F868094946139800902C
:102DC00004A800F5235506A800F5A653284623F0CD
:102DD000FCFBD8E9500600287EF441AEC1460DF553
:102DE000376808F1040005F108016BF04CF8DDF8D4
:102DF000700F04F12001CDF8706BD9F8402CCDE9AB
:102E0000008004A8159B00F51A5004F0E9F9064665
:102E1000012814987EF424AE0023022200F02FBF74
:102E20000DF5405090F83B03002800F030870DF579
:102E30000050D0F8902706A86CF0D6FD04A800F545
:102E4000235904A800F51A5104A800F51153484667
:102E50001CF0DCFC0DF500500DF500516DF0A2FAF0
:102E6000002840F0E780B01C09F102016CF008F97D
:102E7000701C01218DF8415600F00BBF0DF540503C
:102E800098F8212390F8B13204A800F5235045A901
:102E90001CF018FE0DF5005090F8D008022840F004
:102EA0001F870DF5005090F8D10802F053BC0DF5C6
:102EB0000050D0F8902706A86CF096FD04A800F505
:102EC000235504A800F51A5104A86BF0DCFD0DF59C
:102ED00000500DF5005190F8D00891F8D1A80028C5
:102EE00000F00A875FF8B80350F82A00FEF752BDD9
:102EF00098F8218345A85FF8D0131122434604F0C7
:102F000095F9002800F01C87CDF8008004A800F592
:102F100023555FF8EC2345A91123284604F024F932
:102F200004A86BF028FD01F018800DF50050691D14
:102F30000DF5C8650F2290F8D4686BF0AFFF04A8B8
:102F400000F51E50D0F85401102841F0068007CD3E
:102F5000A9E807002888A9F80000A87889F80200E5
:102F600000F012BF0DF540500DF5C86490F8B11295
:102F70006DF0C8FC98F821332146DDF8402745A8BC
:102F800004F054F9B0B10DF5405090F8B11204A816
:102F90006CF095FD66F038FF98F8213304A800F531
:102FA0001E502146D0F8402245A804F023F80128FD
:102FB00040F0F9800020092100F062BF0DF540507B
:102FC00098F821A3CDF854B090F8383304A800F550
:102FD000235845A9524640461CF074FD0DF500509B
:102FE00090F8D0580DF5005090F8D1B8022D40F06F
:102FF000F686149E5FFA8BF001F02EBA0DF50050A4
:10300000D0F8902706A86CF0EFFC04A800F5235434
:1030100004A800F51A5104A800F5115320461CF02D
:10302000F5FB0DF500500DF500516DF0BBF90028D2
:1030300000F0EA865FF8080550F82500FEF7AABC04
:103040000DF5405098F82123A24690F8BC3304A80F
:1030500000F5235445A9159220461CF033FD0DF5CB
:10306000005090F8D0880DF5005090F8D158B8F184
:10307000020F40F0ED86149EE8B201F0EDB998F829
:10308000214345A85FF860151122234604F0CEF8CD
:10309000002800F0F3865FF8701545A8112223463A
:1030A00003F0A8FF149E01287EF475AC00200C21CB
:1030B00001F0CEBA06A84FF4807100F5F1546CF01F
:1030C000C7F804A9012001F5A65198F821832246EA
:1030D0000123C1F8680A04A800F5235545A96CF03E
:1030E000EAFF04A800F51E59D9F84001012840F074
:1030F000CD86149E00F0E4BED1F84441C0077FF4B1
:10310000A7AA06A805F1080100F5F1506AF0AAFF88
:1031100059460126C1F8206B4FF48072C1F8244B48
:103120000CA800F54A5406A904F1080001F5F15174
:1031300076F0CAFADDF84007002EDBF8242C0DF5F6
:10314000C863009018BF261D04A831466CF0F7F83C
:1031500025F0F0F804A8294600F51A54202220266C
:103160006BF0A5FE01209DF8802DCDE9000601231E
:10317000CDE9024604A806A900F5235001F5A651A1
:1031800003F0B4FADBF8400101283EF463AB0BF521
:10319000A4750022002333CD8DE83300404609F0AA
:1031A0009CFAFEF775B98820FEF7F4BB99F85C65C8
:1031B000072E00F0FA86F01EAB4604284B46014667
:1031C00028BF0221149A022901F03786C8B20028CC
:1031D00041F09E86D3F82C1593F83005D3F82024BF
:1031E0005B46CDE9000104A800F52356139930464B
:1031F00010F08FFD04A800F51E50D0E950040028FF
:103200007EF460AB06F1080191A86CF044FB04A8C1
:10321000002600F51E5AD9F82C05DAF84485DAF8AC
:1032200048A54044C9F82C0502F0F0BA139C2A4680
:10323000D9F82014204610F045FBAB469DF8785C89
:103240000020D9F82024CDE9005004A8129E00F5F2
:10325000235821464046334610F05BFD04A800F594
:103260001E5ADAE9500401283EF42CAB08F108019B
:1032700091A86CF010FB5846DAF84485DAF848A5B6
:1032800024F03AFC584631466AF0DBFD032689F803
:10329000305589F85C65C9F82C8502F0B7BA6DF035
:1032A0001DFABBE80F0002AC6DF052F804A800F55F
:1032B000235406A86BF0D0F80DF500506DF0E0FC3B
:1032C00000F0D68013950CA804F1080100F54A50CF
:1032D0006BF046FD04A89DF88CAC00F51E540DF56E
:1032E000376000F11808DDF8883CD4F8A0BA04A8CB
:1032F00000F5235602A800F50D514246304636F03F
:10330000CFFCD4E9500401283EF4DCAA0DF5C865D1
:1033100006F10801281D6AF0A5FECDF84046514689
:10332000DDF8403704A800F511502A4636F0B4FA0B
:1033300004A800F5A651D1F8800FD1F8844FC0073A
:103340007EF4C0AAD1F8880FD1F88C1F47F8581C1A
:1033500047E918406CF087FE0829C0F8401142F098
:103360009783584625F0ACF80CA80DF5095400F5E4
:103370004A51A7F1600220463DF05AF804A9139E75
:1033800001F5A6550020C5F8980D304624F0B4FB91
:10339000304641466AF055FD08202146C9F82C0503
:1033A00009F5A6606BF07DFD2B4689F85CA5042627
:1033B00000F05EBCDDF8740CD9F820249DF8808CF8
:1033C000DDF8785CDDF87CBC00900CA800F54A566E
:1033D000DDE9123130466AF097F804A800F51E5A6C
:1033E000DAF8200BDAF8244B01283EF46BAA0DF52D
:1033F000C86906F108016CF036FA564676F064F9B1
:103400004046CDF8404636F0DBFA0346DDF840078B
:10341000CA6B19468DE8210804A800F523554B46D0
:10342000284610F0A3FBDAE95004C0077EF44AAA4C
:1034300005F1080191A86CF02EFAD6F84485D6F86B
:1034400048A5072602F0E2B96DF048F90BF5847340
:103450000FCB02AC6CF07CFF04A800F5235406A847
:103460006AF0FAFF0DF500506DF00AFC40F0778528
:103470006CF0F9FDD0F84441FEF724BA2E46DDF891
:10348000744FD9F82054B4F5806F40F0818599F8D5
:103490005C054946072800F08885042801F07186FC
:1034A000062840F0828504A8129900F523544FF4B1
:1034B000806220460FF021FB04A86BF05CFA02F05A
:1034C000E3820CA8211D00F54A5840F214426BF02B
:1034D000E9FED9F854456FF07040844202F045820D
:1034E000D9F828052146002233460138CDE90008E5
:1034F00009F22C503EF0EDFA002842F03682601CB2
:10350000C9F85405D9F82835324699F8580504A960
:1035100001F51E51CDE900081398D1F8301F029132
:10352000294610F020FC044601287EF4CBA902F0C5
:103530006CB999F85C0504A901F5A653072800F0B9
:103540009583042840F0928399F82C352A46D9F8BF
:103550002014139810F08EFB04A901F5A65386E3FE
:103560000DF58050D9F82024856F0DF5805090F826
:103570007C60DDF8740C009004A800F52358DDE9A8
:103580001231404669F0C0FF04A800F51E5ADAE97E
:10359000500401283EF496A90CA808F1080100F592
:1035A0004A594FF4807209F1040076F08DF83046E4
:1035B000CAF8204B36F004FADAF8203C04AC0DF5DA
:1035C000376204F5A65402F58472C4F8802F0122F4
:1035D000CDF840266FF00402C4F8845F0DF5C8658D
:1035E000CDF8442604AC04F511545FF8B82ACAF8A3
:1035F00048214A46CAE950540C6C5FF8C41ACDE918
:10360000008140F60201A047C00704BFDDF8400674
:10361000002801F0E3848824FEF754B90DF53769DA
:1036200004F108014FF41072D34648469A4675F0EB
:1036300087FD95F8D41306A800F5F1501CF062FC44
:103640002C4606A80DF5C8656DF053FD0DF54050EC
:1036500090F8381304A86DF01FFB66F0D5FB94F8C2
:10366000D5332846DAF84022314603F0DFFD002842
:1036700000F09E84062002F041B90DF5376B06F18B
:103680001801584629F0F4FEDDF8700F1028C0F03C
:103690006B82A0F11006CDE91185202EC0F0648266
:1036A000A0F1300404A80BEB040100F54A506BF0C4
:1036B00045FC15980BEB060102681092D0E9015207
:1036C000C0680F921022159004A800F5A650D0F8FB
:1036D000A464D0F828A504A800F523586BF0E9FDF0
:1036E00004A8119900F51A50CDE9080104AA09F2BD
:1036F0001C4009F5946102F54A52159BCDE9002161
:103700002946CDE902A010980F9ACDE9046BCDE9C6
:1037100006481DF0E5FA834601287DF441AE04A871
:103720000DF5376100F523552246284668F028FF3D
:1037300004A800F51E50D0F840B10DF5405090F8A7
:103740003042032C3DF42CAE0CA8291D00F54A563E
:1037500040F65C12301D75F0B7FF0DF540500DF5C9
:10376000405190F8330281F8130C0DF540500DF5DF
:103770004051B0F83102A1F8110C0DF5405080F81D
:10378000104C04A800F51E540DF58050C4F820BB61
:1037900090F8FC2904A8119900F51A50CDE9000110
:1037A00004A804A96CF058FBD4F84001012800F0EB
:1037B00092806CF058FCD0F84881D0F84CB1D0F829
:1037C0005091D0F85451FEF71BBF6CF0AFFD04A828
:1037D0006EF0F1F80CA86DF07DFC04A800F51E5AFF
:1037E0000DF5405090F8106CDAF820BB032E3DF434
:1037F000D7AD0DF53760211D04306AF0FFFC0DF5E3
:1038000040500DF58051CDF870BB0DF5376B90F839
:10381000130C81F8D3040DF540500DF58051B0F82C
:10382000110CA1F8D1040DF58050594680F8D064F0
:1038300004A86DF031FA68F027FE6CF03FFD04AC8F
:1038400004F5A654DAF840E1D4F8B0C0D4F8345105
:1038500004AC04F51154089404ACCDF81CE004F554
:103860001A54CDE9094806F1040809F1280409F1C0
:10387000AC068DE84300CDE90354CDE905C80CA89A
:103880006DF023FC0DF5405090F8B002012840F097
:10389000E487DAF824BBFDF783BD0CA806F13801F4
:1038A00000F54A5029F0E4FD159B10330FCB02AC14
:1038B0000FC400200022009004A800F5235404A89F
:1038C00000F511510D236CF05DFA0DF500506DF00F
:1038D000D7F940F0D3846CF0C6FBD0F844B1FDF7C3
:1038E0005FBD6CF023FD04A86EF065F80CA86DF0C8
:1038F000F1FB04A800F51E5A0DF5405090F8106C2D
:10390000DAF820BB032E3DF44BAD0DF53760211DD9
:1039100004306AF073FC0DF540500DF58051CDF880
:1039200070BBC34690F8130C81F8D3040DF54050DA
:103930000DF58051B0F8110CA1F8D1040DF58050AF
:103940000DF5376180F8D06404A800F5235840468F
:1039500068F09AFDD5E9002308F10408D5E90201D1
:1039600004AC04F5A654DAF840C109F1AC05D4F86A
:10397000B0E0D4F8346104AC04F51154089404ACFC
:103980008DE8630004F51A54CDE9094B09F12804C8
:10399000CDE9044ECDE9068C0CA800F54A56304618
:1039A0001DF0AAFA0DF5405090F8B002012841F040
:1039B0000F806CF058FBD0F824BBFDF7F1BCD1466A
:1039C0000DF5376A04F108016DF0F7FB0DF5405075
:1039D00095F8D5330DF5C86290F8BC1304A86BF0C8
:1039E000AEFC1CF0BDFC0DF5005090F8D0480DF574
:1039F000005090F8D168022C00F01E8402A8A91C87
:103A000000F50D5B14220BF1020075F037FB0DF58C
:103A10000050414680F849630DF5005080F8484356
:103A20001598D0F820241298CDE9000A04A800F5D2
:103A3000235606A800F5F15330461CF0F3FD0DF5B2
:103A400000500DF500516CF0ADFC012840D045ACA4
:103A5000B11C601C6BF014FB5FF8200F4FF4806109
:103A60008DF8145190F8D503159004A800F523564D
:103A70006BF024FE0DF500500BF10605224690F880
:103A80004D3304A800F51E502946D0F8A40BCDE90B
:103A9000009004A800F54A58404668F051FB04A87D
:103AA0000DF5095100F5A65432464FF48063D4F861
:103AB000790EC4F8700D04A800F5115027F0E0FB52
:103AC0000DF5005090F85004012841F0928206252F
:103AD000149CE8B201F0BFBC0DF580501295D2F8ED
:103AE000203106F1180290F8FC5602A80DF5376651
:103AF00000F50D51304636F0D3F8DDF8700BDDF8E7
:103B000074BB01283DF44CAC45AC06F10801201D06
:103B10006AF0A8FACDF814B12946859B04A800F5EF
:103B200023562246304635F069FE04A800F51E549F
:103B3000D4E9500BC0077DF433ACCDF844800CA819
:103B400000F54A5006F10801043040F68C12054693
:103B500075F0BAFDBBF1100FC4F820BB24BFABF168
:103B60001004202C81F034854FF0830BFDF718BC36
:103B70000DF540510DF5405040F2FB32CDF850802C
:103B800091F8B71215910DF5405190F8B80291F8DF
:103B9000B6A20DF54051D9F8208B91F8B5420DF53C
:103BA000405191F8B46205F1090105460DF5376001
:103BB00075F064FA33462246159E4FEA18400121FB
:103BC0000DF5005CC8EA0040C9F844010BF10D0096
:103BD0008CF8DC580DF5005585F8DB680DF50055BF
:103BE00085F8DAA80DF5005585F8D9280DF50052AD
:103BF00082F8D8380DF50052A2F8D2480DF50052DF
:103C0000A2F8D0180DF5376140F2FB3275F036FAA4
:103C10001498594608F02DFEFDF73ABC04F108014E
:103C20000DF5C8606CF04FF90020DDF8841FCBF86B
:103C3000C00104A800F523503DF032F998B9DBF833
:103C4000C00100900DF53760DDF8802F04AB03F55F
:103C5000235500F110010DF5C8602B4666F031FECA
:103C6000002800F0E8879924FEF7F0BC0020062623
:103C700001F0CFBDD5E90061D5E902451498CDE941
:103C80000061CDE9024508F05CFDFDF701BC0021B3
:103C900000200DF540528DF840160DF5405192F878
:103CA00039330DF5405291F8381392F83A230092C7
:103CB00006AA02F5A652CDE9012004A85A466BF0E7
:103CC0003EFB1BF085FE98F8212345A928461BF0F2
:103CD000B7FFC0B2072841F03D8500200621CFE0A4
:103CE00010F001040DF5005090F8D20818BF44EA16
:103CF000002400200B21C3E0CDF854B0A91C1CA85F
:103D00006BF0BEF90DF5405098F8212390F8383348
:103D100004A800F5235B45A958461BF0D3FE0DF51A
:103D2000005090F8D0580DF5005090F8D148022D71
:103D300040F07883DFF8380F50F82400FDF72ABEF2
:103D400004A9002001F51E5110221026C1E95000DF
:103D5000C1E9520006A86DF035FADFF8181F1122EC
:103D6000CDE9005645A8434603F03AFA012840F051
:103D700071830DF50050691C0F2290F8D06806A8D9
:103D800000F5F15075F07AF906A9A7F1600001F588
:103D9000F15801300F22414675F070F90DF50050D1
:103DA00007F8606CD0F8902706A86BF01DFE04A8F9
:103DB00000F5235504A800F51A5104A86AF063FE23
:103DC0000DF500500DF500516CF0E7FA012840F0B8
:103DD0004184DFF89C0E50F82600FDF7DBBDB01CD7
:103DE00008F10201432275F049F9E8078DF841B660
:103DF0008DF8405600F036839DF84206002840F0CA
:103E00003183022401F072B90DF5095BA11C0BF19D
:103E100001006BF035F90DF5005080F84052BAE81A
:103E20000F0002AC0FC420200DF53761009004A8EC
:103E300000F52355012201236BF09EFF0DF5005084
:103E40006CF01EFF40F068836BF0EDF9FDF7A2BD4A
:103E5000B01CA11C432275F011F95FEAC8708DF8FF
:103E600041568DF8408600F016839DF842060028E2
:103E700040F011830024149E01F083BA00200C212D
:103E8000002200230025149E01F080BA301D05F1A8
:103E900008014FF48072D9F8444175F015FCDDF843
:103EA0004027A7F16003DFF8D00D3146009040466F
:103EB000CDF8404635F03AFC149EC00700F0C683AA
:103EC0008820FDF768BD0DF5C8630FCB02AC6CF020
:103ED0003FFA04A800F5235406A86AF0BDFA0DF5D0
:103EE00000506CF0CDFE3DF497AB06A86DF0D8FC09
:103EF0006AF036FFD5F8A00A202841F0C585A6F162
:103F00001C0420220AEB0400159006EB0A0045AEC3
:103F1000A0F1100906A800F5A6516AF0CBFF04A88D
:103F2000314600F5115B58460EF0D0FC0DF5C86027
:103F3000DDF8543B159900F58A725846CDE900A486
:103F4000CDF8089023F086F98146002800F0E38739
:103F50004FF0000B002601F029B802207BE20CA8EC
:103F600004F1080100F54A5040F658122E4675F04B
:103F7000ABFB04A800F51E539DF8940DD3F8A04A9E
:103F8000C00700F0BB83DBF81D02DBF82112C4E39D
:103F90000DF5C86031466CF0FBFB9DF874170720E7
:103FA00089F85C05072940F006849024FDF78ABC57
:103FB0000DF540504B4690F838130DF5405090F8F1
:103FC0003B03009034A8119A1CF0AAF915984146B9
:103FD000D0F820241298CDE9000904A800F5235553
:103FE00006A800F5F15328461CF01CFB0DF5005007
:103FF0000DF500516CF0D1F9012801F02A8204A8D6
:10400000A91C6CF0E7FB0DF540500DF1D0080DF543
:10401000C86180F89062DFF8640C90F8D52304A89A
:1040200000F51E50D0F8A45B0DF5405090F839A370
:104030000DF5405090F83A9340461CF01FFA149C3E
:104040000646C0B2072841F0058204A8802100F589
:10405000235074F07BFA9DF8D53008F10601CDE9C4
:1040600000B524A804AA02F54A5268F069F89DF840
:10407000D000DDF8D150012841F094812C0E284663
:10408000214669F025F80DF500520DF50053002189
:10409000A7F1600B82F87C134FF4802283F84C1355
:1040A00004AE06F5A6564FF48013C6F8D40E0DF5EF
:1040B0000050C6F8783E80F884140DF50050C6F81C
:1040C000A45E80F854144FF40010C6F8800F20202E
:1040D00027F8600C80200090DFF8A00BC6F8DC1FEA
:1040E000C6F8A82E00F56A71C6F8AC5F0DF5095048
:1040F000C6F8B02F04AA02F523535A4627F070F9E8
:10410000D6F8700D002841F0A38104A800F5A65050
:10411000D0F8780D202841F09B8104A81F2200F5DB
:10412000A6580BF10100D8F8741D11F8016B74F05A
:10413000A5FF2846214607F8606C68F0C9FF0DF519
:1041400000520021F34C012582F85C1204AB2021BF
:10415000022203F51153C8F8783DC8F8881D0DF503
:104160000951C8F8705D8023C8F8744DC8F87C2DDB
:10417000C8F8800DC8F884BD16A804AA02F5235219
:1041800027F050F916980E281CBF16980E2841F0FB
:104190005F8102A8DDF8D15000F50D5001F010B993
:1041A00004A9002001F5A65110221026C1F86809C3
:1041B000C1F86C09C1F87009C1F874090DF53760D0
:1041C00049462FF019FECDE9009604A8DFF8A41A9D
:1041D00000F5235011222B4603F002F8012840F08D
:1041E0008E830DF5805009F101010F2290F8386E91
:1041F00045A874F043FF0DF5095045AD01300F227D
:104200006BF079FE0DF500500DF5C863414680F85E
:1042100040626BF04EF906A800F5F15420461CF000
:1042200001FA0DF580500DF5805190F8380E91F897
:10423000396E012840F02A85DFF8440A50F826003C
:1042400001F05CBB4FF0000C092200230026002582
:10425000149C04A901F51E51C1F8E02AC1F8E45AE2
:10426000C1F8E80AC1F8ECCAC1F8F03AC1F8F46A3A
:104270000CA800F54951204601F090B80DF500500A
:1042800012950DF58A7B04F10F0190F8DA081922D6
:104290008DF8B2000DF50050B0F8D808ADF8B000B8
:1042A00004A800F51E5ADAF84B0111906BF017FCC8
:1042B000DAF8A00A202841F0E4800DF540519DF87D
:1042C000B20081F872020DF54051BDF8B000A1F8BE
:1042D00070020DF53761BBE87D008C46ACE87D00CF
:1042E00019229BF800008CF800001198CAF8E30A24
:1042F0000CA800F5495B6CF08AF9159B09F23C4566
:104300000FCB04AC04F5A654DAF820CFD4F8C4E4FB
:10431000D4F8486504AC04F51A54CDE9084809F509
:104320009864CDE90265CDF810E009F12808CDE9DF
:1043300000B40CAC04F54A54CDE9054CCDF81C8012
:104340001CF0CEFC1499834601287DF42AA804F1C0
:104350001400DAF820EBDAF8248BA446DAF828BB4C
:10436000DAF82C9BDAF8305B24A990E85C005CC199
:1043700074460CF1240106A84FF4787200F5F15050
:1043800075F0A2F912980DF5C866CDF8400606F151
:104390001800CDF84886CDF84446CDF84CB6CDF897
:1043A0005096CDF8545624A991E83C003CC040F208
:1043B000044206A800F5F151139874F0C1FE149858
:1043C000314608F081F8FDF763B8A7F16000A11C41
:1043D00001306AF055FEDDF8408007F8605CB8E80F
:1043E0000F0002AC0FC420200DF53761009004A827
:1043F00000F52354012201236BF0C4FC0DF500509D
:104400006CF03EFC40F01C836AF00DFF01F076BAC0
:10441000DDF8508006200121C8E90010FDF738B80A
:1044200001206DE2B01C0BF10201432274F026FE64
:1044300098F821B3E8078DF841468DF8405600F012
:1044400084849DF84206002840F07F8400250026E1
:1044500001F071B90320149EDFF8141851F8200000
:10446000FDF799BA9DF84306311D012840F08A8472
:1044700006A8202200F5F1586AF01BFF9DF874167B
:1044800004A86BF0C9FA6CF015FAC0B26BF069F8C9
:10449000440000F01DBE9DF84306012840F09C84B6
:1044A00006A8311D00F5F15820226AF002FF9DF8A0
:1044B000741604A800F5235506F135035A4628461C
:1044C00066F038FB6CF0F6F9C0B26BF04AF84000C9
:1044D0009DF84016012909D19DF84216022880F066
:1044E000DB869DF84126914241F0CB8100210CAA48
:1044F000002802F54A5202F1880400F0AC86022836
:1045000040F0D186149E0024002940F02F8700F04F
:1045100038BF00BF010020000DF5005005F1090172
:104520001F2290F8D848A7F1600074F0A7FD04A8F6
:1045300000F51E50D0F8A00A202840F07B8404A883
:10454000A7F160016CF046F90DF54050102280F89B
:1045500090420DF54050002490F84C930DF54050DA
:10456000CDE9364490F84DA30DF54050CDE93444E3
:1045700090F84E03159006A834AD6CF023FECDF8EC
:1045800000B00CA800F54A50494600F1180206A8F0
:1045900000F5F15B2B46584666F038FB01212E945E
:1045A000CDE92C4420208DF8F490009104A901F568
:1045B0004A51CDE901100CA82CAA00F549553DAB94
:1045C0005946284667F0BEFC06F12000294623F034
:1045D0000EFE04A834A900F52355102205F135007C
:1045E00074F04CFD04A9304601F54A516AF0A6FC6E
:1045F0000DF50050BAF1000F0DF5005180F8049947
:104600000DF5005080F8D348159840EA002018BFF7
:104610004AEA002A0DF500503022A0F8D0A84FEA4F
:104620001A4081F8D208281D6BF053FC584623F03D
:104630001CF998F8212345A928461BF001FBC0B2BC
:10464000072841F087800020072119E400200A2173
:1046500000F099BE08F10100A91C6AF011FD0DF5EA
:104660008050414680F8386E04A800F51E59D9F8EC
:10467000245F04A800F5235A504666F001FB0DF5AF
:10468000C8665146304666F045FBDFF8F885A7F16D
:10469000600130461022C04728BA00210822C9E92B
:1046A000501004A800F523513046C0473046594603
:1046B0002A46C04704A8314600F52355C0226AF0B7
:1046C000E5FD0DF509542946204666F035FB20200E
:1046D0000121CDE900100DF53761CDE9024004A8B4
:1046E00000F5235000226BF0D7FCD9F840010128D7
:1046F00040F06C84D9F84401FDF74CB90020082241
:10470000C3E9500004A804A900F51A5001F523518B
:104710001D462FF071FBD5E95001CDF8400620462B
:10472000CDF8441623F0CCFE04A80CA90DF5C864FE
:1047300000F5235001F54A5122463BF079FE04A9C9
:10474000002001F51E519DF89D8DC1F868010820DB
:10475000CDE900400DF5376000F59075D9F82014CB
:10476000139843462A460FF0A6FA01281BD145AC00
:10477000294669F093FC04A904F5827001F52351E0
:104780006AF08FFB304623F0B7F9304621464FF4EC
:10479000987274F099FF0620022689F85C0589F862
:1047A000588501F033B8044604A800F5235023F0DF
:1047B00070F9FDF787B8062900F0F684042940F067
:1047C000358504A8314600F523584FF484726AF009
:1047D00069FD04A8294600F51E504246D0F8403233
:1047E0000DF5005090F8D4691298CDE901041398A2
:1047F00000960FF0B8FA012808D1009604A901F537
:1048000023536BF051FF012800F0F6870446012086
:1048100001F03EB8D4F87C1ED4F8802E06A800F52E
:10482000F15061F0B1FF0DF58050149C90F8610ECD
:1048300080B10DF580500DF580514FF0000C0B222A
:10484000B0F85E0EB1F85C1E401A0002013080B272
:10485000FEF756BA062001F052B80DF5405004F1AB
:1048600008012922DAF8245B90F8B3028DF81601CA
:104870000DF540506CF0B7FF6BF031F945AC59467F
:10488000E01D6CF0ADFF0CA80BF1190100F54A50CA
:104890006AF0CBFECDF8175104A800F5235021464D
:1048A000202267F057F9002840F0C68004A80CA920
:1048B00000F5235001F54A51102267F04BF900280A
:1048C00040F0BA800DF5805009F5987190F80C37DA
:1048D00004A800F5A650D0F8382204A800F51E5010
:1048E000D0F84001CDE9008002A800F50D5002F09B
:1048F00077FC834601287CF453ADFDF781BE02208E
:10490000149C00F0A8BD681CB11C6AF0B9FB0DF541
:1049100080504FF4806180F8384E04A800F51E5096
:10492000D0F8A46B04A800F523586BF0FFF80DF540
:104930000050CDE900960AF106012A4690F8553458
:1049400045AE304667F0FCFB04A80DF5095100F5B3
:10495000A65442464FF48063D4F8810FC4F8700D1A
:1049600002A800F50D5026F08BFC0DF5005090F8D4
:10497000480301283EF47EAED4F8795ED4F87D9EDB
:10498000CDE9006B02A800F50D502A464B4627F0F2
:1049900053F8D4F8780E0E287EF46CAED4F87C6E02
:1049A000F0070FD04FF480602A46CDE9008002A8BE
:1049B00000F50D504B4626F071FED4F8780E0E2807
:1049C0007EF458AE06F001004FF0000C03223CE4E8
:1049D0000DF540500DF5376406F10801292290F8D5
:1049E000B3028DF816010DF540506CF0FCFE04A8E2
:1049F00000F51E50D0F8245B6AF059FA45AE214606
:104A0000F01D6CF0EDFE04F119012CA86AF00DFE0A
:104A1000CDF8175104A800F523503146202267F045
:104A200099F848B904A82CA900F52350102267F082
:104A300091F8002800F014854FF0890BFCF7B0BC0A
:104A40000DF5005004F109011F2290F8D85804A870
:104A500000F54A5074F012FB04A800F51E56D6F873
:104A6000A00A202840F0C28204A90DF5095B0BF1D1
:104A7000010001F54A516AF003FB0DF50050D6F82C
:104A8000B86B0DF5376380F840527C4890F8D543F9
:104A90000DF5405090F84DA30DF5405090F84E03A1
:104AA00015900DF5405090F84C130120009034AD56
:104AB000119A28461BF034FC0DF5C86128462246A1
:104AC0001BF0DCFCC1B2072940F014879DF8D00030
:104AD000012840F0E8870CA8DDF8D14000F54A50E5
:104AE000802100F1180804A800F523596AF002FE9D
:104AF000CDE900860DF190089DF8D530A91DA7F1EC
:104B00006002404667F01CFB210E204668F0E0FA88
:104B10000DF5005200214FF480264FF4801382F8E7
:104B200084140DF5005245934FF400138DF848118D
:104B30004FF0200C519601258DF818115C9050947F
:104B400082F8541404AA02F5A652C2F8803F0DF56B
:104B50000053C2F8B06FC2F8DC1F83F8641302215F
:104B6000C2F8AC4F04AB484E03F51153C2F8803E77
:104B70008023C2F8785EC2F87C6EC2F8841EC2F848
:104B8000880EC2F88CBEC2F890CE16A802A94A467A
:104B900001F50D5126F046FC16980E281CBF1698FC
:104BA0000E2840F0A68600210020BAF1000F1FBF9A
:104BB00015980DF50052A2F84A0301200DF5005397
:104BC000032283F867230DF50052102382F8621345
:104BD0000DF500524FF48071A2F8601345AA04ADA0
:104BE000022105F5A655C5F8881E0DF50051C5F83A
:104BF000803E8023C5F87C8EC5F8842EC5F88C4E87
:104C0000A1F8480316A802A904AA01F50D5102F55E
:104C1000235226F025FC16980E281CBF16980E2845
:104C200040F067869DF8D000022840F0A1869DF8EC
:104C3000D10000F05FBEDBF8C00101215246012324
:104C4000CDE90010CDE9025006A806A900F5F15003
:104C500001F5A65101F04AFD04A800F5A652D2F8CC
:104C60006809012840F0DC81D2F86C49FDF7EEBC00
:104C700060C107009CA20700949E0700109C0320BF
:104C8000C8C207002DAD060001002000681CA11C51
:104C90006AF0F6F98DF8146104A800F51E50294653
:104CA00020224FF02008D0F8244F06A800F5F15636
:104CB000304666F013FE04A800F5A659D9F8680935
:104CC000C00740F0E18604A806F1080100F511557F
:104CD000C0226AF0DBFADFF8EC6D0DF509512846C9
:104CE0001022B04720BA0021C9F868190822C9F873
:104CF0006C0906A800F5F1512846B04728465146F0
:104D00002246B04706A8294600F5F15469F0CEFFC7
:104D100002A8214600F50D55284667F00BFA012040
:104D2000CDE90258CDE9000806A800F5F1500DF5CF
:104D3000376100226BF0B0F9D9F86809012840F01A
:104D40001482D9F86C0900F0D9BD9DF84306311DD5
:104D5000002800F06D8106A8202200F5F1546AF0C9
:104D6000A6F89DF8741604A86AF056FE284620217D
:104D70002246202365F090FAC0B26AF0F2FB4000B0
:104D800000F0A8BC0DF5095820226AF092FA06F14D
:104D90002400A7F1600B90E86C0059460DF5005017
:104DA0006CC1D0F8902706A86AF01EFE04A800F592
:104DB000235504A800F51A5104A869F064FE0DF506
:104DC00000500DF500516BF0E8FA002800F0648106
:104DD00006F0070BFEF70DB95C460DF5095B311DBA
:104DE00020226AF07CFE06F1240C3DA99CE82D00EF
:104DF0002DC104A800F51E50026806A800F5A650B3
:104E0000CDE900A004A800F5235504A800F51A5127
:104E100004A869F038FE0DF500500DF5005190F82A
:104E2000D00891F8D188002800F0698108F00705C2
:104E3000FEF721B98720FCF7ADBD032840F2268696
:104E4000D3F82805D3F82024D3F82C555B460090DE
:104E50000CA800F54A5A1399504668F055FB04A86F
:104E600000F51E51D1F8200BD1F8244B01283CF459
:104E700029AD0DF5C8680AF1080169F0A1F8CDF86F
:104E800040463146DDF840374246009504A86AF0B6
:104E900056FA0EF075FD04A800F51E50D0E9500436
:104EA000C0077CF40FAD0AF1040005F108014FF4CE
:104EB000826274F009FC04A800F51E52D9F82C0592
:104EC000D2F8301FD2F85885B1F5826F0844C9F87E
:104ED0002C05C2F8204B40F01685D9F858456FF0E4
:104EE0007040844200F04185D9F82805214600220F
:104EF0005B460138CDE9000A09F5A6603CF0ADFD3E
:104F0000002840F03285601CC9F8580500F035BD16
:104F10009024FCF7D8BC04A8224600F523560CA820
:104F200000F54A51304664F081FE0DF50050B0F8AE
:104F3000D0480F2C35D00DF500506AF0FCFCD5F8A8
:104F400044A1B0F8D2B86AF0ADF9CDF874AB0DF564
:104F50000052ADF872BBADF8704B04A800F5A65135
:104F60000DF50050A0F848430DF58050C1F87CAE17
:104F7000B0F8D404A2F8500308689DF85A2BCDE984
:104F8000008004A806A902AB00F5235001F5F151F9
:104F900003F50D5301F049FB04A869F0ECFC40F067
:104FA0006084D5F8444100264FF0020B04A800F5B8
:104FB000115022F05AFCB9F1000F3DF4B4A84FF0A3
:104FC00000084FF000090025FDF7A4B8D9E95240C8
:104FD0000025D9E954230521FEF755BFDDF84446E5
:104FE000082600F013BC052000F085BC892000F0E5
:104FF00085BCD4F881BFD4F8859FCDE9008A04A888
:1050000000F511505A464B4626F016FDD4F8800F95
:105010000E2840F03A820DF5005090F8548440E29A
:1050200002F5176500230122DDF85080FEF7B3B8C2
:105030000DF5095820226AF03CF906F1240C34AC35
:105040009CE82D0021462DC10DF580501F2280F8CF
:1050500038AE09F101001CA974F010F8CDE9008404
:1050600004A800F52355159A31464B46284665F0AD
:1050700099FD0DF5005090F8D008012840F02983E3
:105080000DF50050A91C1F2290F8D188A7F140000F
:1050900073F0F4FF01201DE309F10100A91C69F080
:1050A000EFFF0DF58050CDE9008B0DF5C8614B4643
:1050B00080F8386E04A8159A00F5235065F072FD4B
:1050C0000DF50050022490F8D008002818BF0124E4
:1050D0009DF84006012809D19DF84216022C80F067
:1050E000A8809DF84106814240F0A680149E0020D1
:1050F000022C4FF0000438BF0124032143E10CA827
:10510000A91C00F549551F2269F0C8FE0DF5805015
:1051100029461F2280F8388E09F1010073F0AEFF96
:105120003DA80DF5C86122464B46CDE900B004A864
:105130006AF005F965F036FD0DF5005090F8D008DD
:10514000012840F034830DF50050A91C1F2290F86F
:10515000D19834A873F092FF2CA80CA901F54951FD
:1051600069F08EFF0120FFF7B3B9D9F87009002567
:10517000D9F874C90522D9F87839D9F87C69FFF7CC
:1051800067B891F82C053246D1F828354FF4806184
:1051900000901298CDE90101294613980EF0E3FD25
:1051A00001287DF42FA830E304A8314600F5115002
:1051B0004FF49A7274F088FA04A8129900F52358F3
:1051C000224640460DF099FC04A869F0D4FB00F09B
:1051D0005B840CA808F1040100F54A5640F2144221
:1051E0006AF057F804A809F22C5100F5235468F02E
:1051F000F9FF0DF50050A7F16003012290F88085BA
:1052000007F8608C04A800F51E50D0F86811012042
:10521000CDE9000620463CF05CFC0646204622F024
:1052200038FC002E00F0C682832430E30120902455
:1052300034E30120C1FA50F08DF842060DF5C86044
:1052400045A952461AF0FCFC149E8346C0B20728BA
:105250007DF4D0AE4BE79DF842260023BDF8400612
:105260009DF8741640EA0240020A009206AA02F56E
:10527000A652CDE9012300F0010304A800F523554F
:10528000224628461AF0A4FB0DF5C860294645229F
:1052900074F01AFA012468E001200024C1FA50F0E9
:1052A0008DF8420661E0A7F1600A07F8609C0AF1F8
:1052B000010034A969F0E4FE0DF500500DF5095523
:1052C0001F2280F84082681C2CA973F0D7FE4FF093
:1052D000000B0DF1F408CDE93FBB1022CDE93DBB39
:1052E00006A800F5A65041462EF086FD9DF87416DE
:1052F0002246009506A800F5F1554346284665F07C
:1053000085FC9DF8740601248DF813012020CDF84A
:105310000CB10DF21313CDE941BB2946CDE9004A8A
:1053200002900CA800F5495941AA484666F00AFEC9
:1053300004A8494600F5235505F1200022F057FF47
:1053400006F1350041466AF070F92846514669F089
:10535000F5FD301D294630228DF843B673F08EFEE0
:1053600006A800F5F15022F080FA149E45A9159A7E
:105370000DF5C8601AF064FC0546C0B207287DF43C
:105380007BAE00200821002200230025CDE9184033
:105390003046CDE91615CDE91A2316A907F0CCFA47
:1053A000FCF776B84FF48021002051914FF4801122
:1053B0008DF848018DF8180145915C90509545A8ED
:1053C00000220021BAF1000F0DF500541EBF0DF5AB
:1053D0000051A1F852940121032384F86F340DF594
:1053E000005383F86A240DF500534FF48072A3F83C
:1053F000682404AC04F5A65424AE02221023C4F899
:105400008C0F0DF50050C4F8883F8023A0F850148D
:105410000DF50950C4F8846FC4F8902FC4F8945F58
:1054200004A904AA01F5115102F5235226F018F837
:10543000D4F8700D0E2806D004A800F5A650D0F8B8
:10544000700D0E2804D14FF0000C0622FEF7FDBEB1
:105450000626149CF0B2DFF8641651F820004EE2E4
:1054600004A8414600F51E54D4F840210CA800F5CC
:105470004A5A504648F079FCD4F8200B012840F0F5
:1054800021824FF08A0BFBF78BBF04A869F06DFAFD
:105490007EF41DAB04A800F5A650D0F8840F00F0F0
:1054A000010804A80DF5376100F51154204622F0DB
:1054B0005DFF2846214610224FF0100A73F0DEFDF2
:1054C0000DF50050A7F1600690F84D3304A800F5E3
:1054D0001E50D0F8280C0CA901F54A518831CDE9AD
:1054E000001045AA3046294666F02AFE0DF5005107
:1054F00003200DF50052DFF8C03581F86F040DF57B
:105500000051002081F86A044FF48071A2F86814F9
:1055100004A901F5A652D2F8791EC2F8941F0DF520
:105520000051C2F88C0FA1F85004DFF89405C2F8BE
:10553000740D4FF48060C2F8846FC2F888AFC2F86F
:10554000704DC2F878BDC2F87C9D0DF509520290ED
:1055500004A800F523500190DFF858050090DFF80B
:10556000500500F56A7134A826F0FCF834980E282E
:105570001CBF34980E287EF4AAAA02A8159A00F53A
:105580000D500DF5C8611AF079FF0546C0B2072825
:105590007EF49EAA04A94FF4806001F52351CDE961
:1055A000001004A85A4600F511504B4626F076F834
:1055B00004A869F0DAF904D004A869F0D6F97EF4F9
:1055C00086AA08F001004FF0000C0822FEF73DBE4D
:1055D000ABF1300BA7F1600005EB0B0169F0AEFCFD
:1055E000159829190268109242680F928268C06863
:1055F0000E921022159004A800F5A650D0F8A481B0
:10560000D0F8284269F056FC04A8119900F51A5008
:10561000A7F16002159BCDE9080109F58E7009F527
:10562000D071CDE90485CDE902405C46CDE9002189
:105630001098DDE90E21CDE906B61BF051FB83463B
:1056400001287BF4ADAE04A8294600F52359224673
:10565000484666F095FF04A800F51E50D0F840B10A
:105660000DF5405090F83052032D3BF499AE0DF5F6
:10567000376609F10401301D68F0C0FD0DF540509A
:105680000DF58051CDF870BB90F8330281F8D3044A
:105690000DF540500DF58051B0F83102A1F8D1045C
:1056A0000DF5805080F8D0540DF5805090F8FD260F
:1056B00004A8119900F51A50CDE9000104A804A925
:1056C0006AF0CAFB04A800F51E50D0F84001FEF7AE
:1056D0006DB802209DF84016012907D19DF8422699
:1056E000022805D29DF841168A4204D1002405E023
:1056F0000121C2FA51F18DF84216012420B102288D
:1057000007D1002500260CE0012600254FF00608F1
:1057100007E0A7F16000A7F1400169F0B1FC0026A5
:10572000012544B10DF5C86045A95A461AF088FA1A
:10573000C0B207280ED10CA8A7F1600100F54954AA
:105740001F2269F0B4FB24A8214669F099FC36B108
:105750005FFA88F0DD4951F82000FCF71BB905B36A
:105760000DF500501F2280F8D08804A800F52354BE
:1057700024A9601C73F082FC20200121CDE90010D7
:105780000DF53761CDE902400DF5C86000226AF0E1
:1057900083FCDDF84006012857D1DDF84406FCF70C
:1057A000F9B80020002200230021FEF76BBB022085
:1057B000FEF78EBE0DF50050D0F8503504A800F568
:1057C0001E50CDF80080D0F8300F0CA901F54A51D9
:1057D000CDE9011004A800F51152139829460EF0E6
:1057E000C2FA012852D1CDF8008004A901F5115365
:1057F0006AF05AFF012849D19DF8740707281CBF99
:1058000040F00200062840F03881052604A901F581
:10581000A6530DF58051DC604FF47F721C4681F871
:10582000D9040DF5805080F8D86491A9159873F0CB
:105830004BFFC4F80C84C4F810A4149806A901F511
:10584000A65106F0D9FEFBF723BEDDF84846002539
:10585000DDF84C060121DDF85026DDF85436FEF760
:1058600012BB05F5A479D5F8545199E8100304A8A2
:1058700000F5115021F0F9FF00264FF0010BFCF765
:1058800049BC01218DF84226FEF731BE04460020B6
:105890009DF87417149A07293CF415A804293CF4C0
:1058A00011A8062908D100283CF40CA80DF5C86001
:1058B00022F0F5F8FCF706B80DF5C86022F0C8F83C
:1058C000FCF700B804A80AF1180C00F51E50D0F837
:1058D000244BD0F8288BD0F82CBBD0F8309BD0F8D4
:1058E000345B24A99CE84D004DC10AF12801FEF764
:1058F00042BD0620C0B2714951F82000149C6AF0E4
:10590000DAF8FBF7C5BD04A8594600F523506AF044
:105910003FFF072089F85C050DF5005090F8045A08
:10592000072D1CBFE81E032840F2B88004A809F523
:10593000A66100F5115468F055FC0DF500500122E8
:1059400080F8D05804A800F5A650D0F8A81F012070
:10595000CDE9000A04A800F5235320463CF07DF869
:105960000646204622F095F83EB18324FBF7AABFF5
:105970004FF0000C0722FEF768BC04A800F51E508B
:10598000D0F8302F04A800F523540CA800F54A5194
:105990006AF0AEF80DF5C86521461922284622F0B6
:1059A000DCFB404667F0DAFD0C46C0077BF48AAFAB
:1059B000DDF84066291D91A869F06DFFA2463446C6
:1059C000DDF8408A0026002020E74FF0000C00237D
:1059D00000260022FEF73BBC6AF045FBD0F8080B1E
:1059E00020284FD104A81F2200F51E50D0F8041B18
:1059F00011F8016B02A800F50D5073F03FFB4FF456
:105A000080605246CDE9009004A800F511542B4661
:105A1000204625F043FE04A868F0A7FF04D004A8A0
:105A200068F0A3FF7CF4EAAF02A9601C01F50D51F8
:105A300069F026FB0DF5005001210022012380F8BA
:105A400050642020CDE900100DF53761CDE902400A
:105A500004A800F5235000F049FE04A868F08BFF6D
:105A60003EF4D2AC04A8002500F51E510122D1E974
:105A7000520CD1E95436FCF77BB80DF5C86021F023
:105A8000E7FFC2E6032036E769F005FA4AF0CCF9F1
:105A900004A80D4900F523506AF07DF904A800F52B
:105AA000235022F029F869F015FE4AF0C7F800BF2C
:105AB000109C03208B88000011120000C8C2070050
:105AC0009CBB070029C106002C9E070060C107008F
:105AD00080B56F46002080BDB0B502AF0C46517A4C
:105AE00051B9117A012907D190F8480C51888142A7
:105AF00004BF9079062800D0B0BD20880428FBD1CF
:105B000004F1240122204FF48072E58801F068FA44
:105B1000054A22234EF025F8204629462222BDE8D8
:105B2000B04002F0E8BB00BF059C070080B56F469F
:105B3000537A012B07D1137A012B02BF90F8480C3E
:105B40005388834200D080BD90790A28FBD1084653
:105B5000BDE8804002F068BCF0B503AF2DE9000F4E
:105B600093B00446807FC9B2814240F0EE806E4619
:105B7000402169F0A3FD10AD04F118013246402325
:105B8000284602F073FD9DF84000002840F0DD80BB
:105B90001198402840F0D98000989DF904A090FA0F
:105BA00080F9BAF1000F3BD42068012840F0CD8085
:105BB00004F104082846414691E84C004CC05FFAC5
:105BC0008AF0227D1099904260D1894540F0BD80D5
:105BD0002669BDF848B006F13B09D9457BD204F1EE
:105BE000380130464FF4406202F045FE69F005FA94
:105BF0003B2069F092FF83460E466846052122F05D
:105C000084F902460B46584631464DF0AAFF012062
:105C1000206095E8070088E807000AF1010056E0D7
:105C20000AF07F004DF004FD5FFA80FABAF1350FFB
:105C300005D12046494602220CF06EFD85E006465D
:105C40006846052122F061F9012940F2848000882C
:105C5000D4F83C1C00BA8DF84A60CDF840904FEA69
:105C6000104820681191ADF8488040B102286CD8E6
:105C70009DF80410862943D1616B0CF035FDB8F511
:105C8000406F08D92046494603225CE020460422A2
:105C90000CF024FD59E004F13800B8F1390F39D97E
:105CA00039214FF0390922F07EF9064688466846C8
:105CB000072122F02AF96BF04CFF41464DF051FFCD
:105CC00001202060201D95E80E000EC000202075E8
:105CD000C4F8109039E004F1380031465A4622F0F9
:105CE00058F98046894668460521ABEB060522F047
:105CF0000CF98D4232D80246404649462B4618E000
:105D0000616889451CD1BAF13D0F21D1616B0CF05E
:105D1000EBFC1AE0414622F046F905460E4668467D
:105D2000072122F0F2F841451AD3024628463146AF
:105D300043464DF016FF10A920460CF0DAFA04E0B5
:105D40002046494600220CF059FA13B069F09AB87F
:105D5000204649469BE702204AF059F96BF052FE73
:105D60006BF035FE80B56F4690F82A20C9B291429B
:105D700018BF80BDBDE880400CF0A0BBBCB504AF2F
:105D80000C4690F8481C054620460322002367F085
:105D900043FCC1B2082917D10C4A20462121072310
:105DA00067F0F5FBC1B208290ED105F118012046B4
:105DB00002F01AFAC1B2082906D105F124012046E1
:105DC000BDE8BC4002F010BABCBD00BF279C070074
:105DD000D0B502AF04460CF039FA2046BDE8D040F9
:105DE0000CF06CBBE0B502AF0022CDE900126946B1
:105DF00008224FF0EDFA0E21002818BF02210846B4
:105E00008CBDB0B502AF88B00C4600200421002242
:105E1000CDE9001003AD2A2369F08BFE68F01AF972
:105E200008B0B0BDB0B502AF94B090E82C000C46FD
:105E300067F03DFD0C220C48092369F0EBFA06A837
:105E40000D900A480C9005A80B9009480A9003A8E9
:105E50000990032009A9CDE900100FAD69F0A8F958
:105E600068F0F8F814B0B0BD609C0700489C0700CB
:105E7000309C0700B0B502AF94B0D0E900230C46C7
:105E80008068412103900F480590432069F0F1FE9E
:105E90008DF822000C4869F0E2FE06A80D900B4830
:105EA0000C9005A80B900A480A9003A809900320BB
:105EB00009A9CDE900100FAD69F07AF968F0CAF8C8
:105EC00014B0B0BDA3000042609C0700789C07009E
:105ED000309C0700B0B502AF8CB000880C4627F8A4
:105EE0002A0C41210748002269F061FC05A9CDE98F
:105EF000001007AD0421492369F01BFE68F0AAF8E1
:105F00000CB0B0BD909C0700F0B503AF4DF8048D08
:105F10000B6804460022BFF35F8F03F51760D0E8DB
:105F20004F5F042D31D1C0E8452F002DF7D1BFF3CD
:105F30005F8F002218781A70022838D103F11008F8
:105F4000DD6803F1090093F90830DEB22B2E22D070
:105F50002C2E1CD00A7A4FF08A0C4FF02B0E012AFF
:105F600001BF144AD25C4B7A9A4209D100220A72CC
:105F700040F658126AF048F973F0E2F8B646AC46BB
:105F8000C4F804C084F800E003E0BFF32F8F2C2096
:105F9000207069F02CB82B2340F658122370002390
:105FA0000B726AF031F9656073F0CAF8F1E769F0D5
:105FB00091FB00BF30C10700F0B503AF4DF804BD41
:105FC000ADF6681D69F0C9FA02D00120607012E0D8
:105FD0006E460D46301D114640F6081273F074FBF4
:105FE00045F60160314628812A2069F007FB20B977
:105FF000034867F07FFD67F036BE68F04CFF00BFD6
:1060000000E200E0F0B503AF4DF804BDADF6681D49
:1060100069F0A3FA02D00120607010E06E460D46D0
:10602000301D114668F02FFB41F601703146288182
:106030001B2069F0E3FA20B9034867F05BFD67F0C5
:1060400012BE68F028FF00BF00E200E0B0B502AF6A
:106050008AB00C460B20002104222023CDE9022126
:10606000CDE900138021049005AD0B2268F0F0FD0E
:1060700067F0F0FF0AB0B0BDB0B502AF8EB00C460D
:10608000412107F8321C002127F8341C0022018826
:1060900025236BF0D7FA0A48089004A8079009480E
:1060A0000690A7F136000590022005A9CDE9001061
:1060B00009AD022169F03DFD67F0CCFF0EB0B0BD27
:1060C000A89C0700909C0700B0B502AF98B0D0F82C
:1060D0000A200C4641210392028869F0CAFD012A78
:1060E000ADF8101001D169F0B0FD828827F8521C7C
:1060F0000021012A01D169F09EFD27F84A1C017A8E
:10610000012902D16AF02CFD00E0002007F8410CC3
:10611000A7F14A010A486BF0D6FC0A486BF0ABFBCA
:1061200009480C9003A80B9004200BA9CDE900109E
:1061300013AD022169F0FDFC67F08CFF18B0B0BD13
:10614000D89C0700C09C0700309C0700B0B502AF88
:1061500094B090E82C000C4667F0A9FB02220C4892
:10616000382369F057F906A80D900A480C9005A845
:106170000B9009480A9003A80990032009A9CDE9CA
:1061800000100FAD69F014F867F064FF14B0B0BDF3
:10619000609C0700F09C0700309C0700B0B502AF80
:1061A00094B090E82C000C4667F081FB02220C486A
:1061B000372369F02FF906A80D900A480C9005A81E
:1061C0000B9009480A9003A80990032009A9CDE97A
:1061D00000100FAD68F0ECFF67F03CFF14B0B0BDED
:1061E000609C0700F09C0700309C0700F0B503AFEF
:1061F0004DF8048DA4B005464068884618B168F093
:10620000D2FAA9680691298868F080FF05D168F064
:1062100067FF6988ADF82210012168F071FFADF8C1
:106220002C00D5E903100A9195F82210002918BF17
:1062300001F184410C9118B16BF0F1F969690E918B
:106240000D90A86918B16BF0D5F9E969119110901A
:1062500001231E486BF0C7F91D481A900CA819902D
:106260001C4818900AA817901B48169008A815906B
:106270001A48149005A8139095F8200095F821105D
:10628000002818BF6FF07E03012904D167F0D6FF04
:1062900002460B4600E00B2295F82300002106255C
:1062A00013AE40F00104612808BF0124CDE900418C
:1062B00004918021CDE902651FAD69F055F86AF0BF
:1062C000F1FA24B05DF8048BF0BD00BF389D0700E3
:1062D000209D0700309C0700C09C0700089D070018
:1062E000F0B503AF4DF8048DADF5047D02AD044665
:1062F0008846214628460122012633F023FC429A93
:1063000029460E486AF0F0FE0D46C0070FD143AE95
:1063100021460022304633F015FC839A3146084866
:106320006AF0E2FE10F0010608BF29440D4630462F
:1063300029460DF5047D68F0C6BF00BF509D0700DB
:10634000689D070080B56F466BF038F938BF0120B3
:1063500080BDF0B503AF2DE9000FC9B006464FF47C
:1063600080700221ADF81B00ADF81D000DF11B0A75
:106370008DF81F1008AC9846914600200328059020
:1063800022D005980DF11D014FF0000B0D5C01307E
:106390000490BBF1020F15D01AF80B203146B868F3
:1063A0000290F86803902046CDE9009833F0FCFB9A
:1063B000489A2846214633F037FB0BF1010B0028A1
:1063C000E7D001E00498D9E70598033818BF012009
:1063D00049B068F01CBE80B56F46ADF5186D0B4630
:1063E00001467869059038690490F8680390B868A8
:1063F00000920122029006A800F055F8BDF818009E
:106400000F3818BF01200DF5186D80BDF0B503AF32
:106410002DE9000FADF59F5D81B0154688460DF55D
:106420002869D7E9061282461E4648463AF006FD1C
:10643000DDF8800A012834D00DF1140B09F10404B1
:106440000BF1080040F65C12214673F03DF9022082
:10645000ADF81450ADF878090DF67C15B8685146C2
:1064600000900122F86801903869029078690390E1
:106470002846069633F098FB48465946DDF87C6A74
:1064800063F09EFBDDF8800A2946009040463246C4
:10649000234633F0A5FA0DF59F5D01B0BDE8000F6E
:1064A000F0BD68F0F8FCF0B503AF2DE9000FADF5D5
:1064B000EA5D81B0D7F81CB08146D7F8188016463F
:1064C000D7F814A00D463C690593CDF80CB0CDF873
:1064D0000880CDF804A0009406A833F065FB69F0AD
:1064E00094FA5346CDE9008B00F069F8C1B2032954
:1064F00004D10F20A9F8000093205AE006A8469B7B
:1065000000F59E5B06A800F59E5606AA304633F0BD
:106510009DF9DBE90005012805D10F20C9F80450D9
:10652000A9F8000047E047AC06F10801201D68F01B
:1065300017FC47952146DDF8742A06A800F59E56FB
:10654000304663F073FB0DF58050B0F8D8430F2C44
:1065500002D1DBF8040029E0059869F0ECF9DBF8DA
:1065600004501FFA80FA0DF58050B0F8DA830DF66A
:10657000782073F0A9F8BAF10F0F0ED109F10800D5
:106580000DF678214FF41662C9F80450A9F802807C
:10659000A9F8004073F098F80DE0544505D1BAF120
:1065A000020FEBD8B8688542E8D098200F21A9F8EF
:1065B0000010C9F804000DF5EA5D67F0BFBDF0B545
:1065C00003AF4DF804BDC8B00D460146F86803900E
:1065D000B868CDE900232A46029004AC204633F087
:1065E000E3FA02208DF81E014FF48070ADF81C0113
:1065F000032046900020459045A800F10806DDE9FB
:10660000450188420CD0355C411C4591284633F049
:10661000D7F90B6B2146449A98470028EFD000E049
:106620000325284648B068F022BDF0B503AF2DE938
:10663000000FADF59F5D87B015460E460DF6982B01
:10664000D7E902120446B3F808A05846D3F80480EC
:10665000B3F800903AF0F2FBDDF8980A012843D035
:1066600006A805950BF10405083040F65C1269F0A8
:106670004DF84AF00200ADF87C090DF5186031467E
:1066800069F0BFFFDDF884A90DF69410DDF88CB930
:106690003146DDF880890122DDF88899CDE9008A4C
:1066A000CDE9029B33F080FADDF8946A0DF698206C
:1066B00006A963F085FADDF8980A0DF694110090AA
:1066C000324605982B4633F08BF9012805D100207E
:1066D000C4E9028AC4E9049B01E0606001202060F3
:1066E0000DF59F5D67F014BD68F0D5FBF0B503AF05
:1066F0002DE9000FADF59F5D87B093460E460DF670
:10670000982AD7E9041205461C4650463AF096FBF3
:10671000DDF8980A01284BD0059506A825460AF110
:106720000404083040F65C122146D7E90298CDF8FF
:1067300010B072F0C9FF02203146ADF87C090DF5AA
:10674000186069F05EFF31460DF69416DDF8849905
:106750002A46DDF88C893046DDF880B9DDF888A955
:10676000CDE900B9CDE902A833F01EFADDF8945A5C
:106770000DF6982006A963F023FADDF8980A314651
:1067800000902A460498234633F02AF905990128F7
:1067900003BFC1E902B9C1E904A80020486018BFDD
:1067A000012008600DF59F5D07B0BDE8000FF0BD4A
:1067B00068F071FBF0B503AF4DF8048D9CB090E824
:1067C0006C0088464121046969F002FD06948DF849
:1067D0002E0045208DF83A000C241548CDE90923F8
:1067E0000A23ADF81C10ADF82C10ADF83810CDE927
:1067F0000C5616900CA9CDE9140109A81390042198
:106800000C48129008A811900B48109006A80F9001
:1068100003200FAA67F00BFD17AD0B22032368F0CE
:10682000A3FD6AF03FF81CB05DF8048BF0BD00BF1B
:10683000609C0700489C0700309C0700F0B503AF40
:106840004DF804BD9CB090E86C000C4641210069F5
:106850000690154868F0A0FF1448CDE909230A23E3
:10686000CDE90C560C25ADF81C1068F060F80CA9A9
:10687000CDE9140109A8139004210D48129008A82D
:1068800011900C48109006A80F9003200FAA68F0F2
:10689000B7FD17AD0B22032368F066FD67F0DAFB46
:1068A0001CB05DF804BBF0BDA3000042609C070073
:1068B000789C0700309C0700B0B502AFA0B00C4632
:1068C000816809B167F057FB68F064FE01D169F097
:1068D000A8F98288ADF828100021012A01D169F0B9
:1068E00096F9ADF83010416909B169F068FC0E9174
:1068F000062515491A910EA91991144918910CAA47
:10690000CDE916120AA9159105221149149108A979
:1069100013911049129105A911910021007F11AB2B
:10692000CDE902320123CDE900510028049118BFBE
:106930006FF07E031BAD80210B2268F015FD67F020
:1069400089FB20B0B0BD00BF389D0700C09C070088
:10695000309C0700089D0700F0B503AF4DF8048D8B
:10696000C4B005468068884618B16AF05FFEE968E1
:10697000079129880690002001294FF0000108D1D5
:106980001221ADF828008DF82A106988ADF826107C
:106990000121ADF8241041218DF8321029690B91A5
:1069A000A988ADF83000012905D16AF0C9FDE88851
:1069B000ADF836000120ADF83400686918B16AF00E
:1069C00027FEA96910910F90E86918B16AF019FEC5
:1069D000296A13911290686A18B16AF0A3FDA96A36
:1069E00016911590E86A18B16AF095FD296B199116
:1069F0001890686B18B16AF087FDA96B1C911B9009
:106A0000E86B18B16AF079FD296C1F911E90686CD3
:106A100018B16AF06BFDA96C22912190E86C18B155
:106A20006AF05DFD296D2591249001231E4867F0D1
:106A3000E5FD1E482E900DA92D911D496AF043FDDC
:106A40001C48289006A8279095F8540095F85510F2
:106A5000002818BF6FF07E03012904D167F0EEFB18
:106A600002460B4600E00B2295F856000C2695F8DE
:106A7000571027ACB0F150054FF0000C18BF054679
:106A800041F00200612908BF0220CDE9000502A8FB
:106A900080E850103FAD802168F066FC69F002FF8D
:106AA00044B05DF8048BF0BD389D0700C09C070022
:106AB000309C0700089D0700B0B502AF9CB00C46A3
:106AC000816809B167F057FA027D059168F01CFCF6
:106AD00001D16AF00DF868F0A3F8104867F027FFBD
